{
  "contractName": "O10Identity",
  "abi": [
    {
      "inputs": [
        {
          "internalType": "string",
          "name": "name",
          "type": "string"
        },
        {
          "internalType": "string",
          "name": "symbol",
          "type": "string"
        }
      ],
      "stateMutability": "nonpayable",
      "type": "constructor"
    },
    {
      "anonymous": false,
      "inputs": [
        {
          "indexed": true,
          "internalType": "address",
          "name": "owner",
          "type": "address"
        },
        {
          "indexed": true,
          "internalType": "address",
          "name": "approved",
          "type": "address"
        },
        {
          "indexed": true,
          "internalType": "uint256",
          "name": "tokenId",
          "type": "uint256"
        }
      ],
      "name": "Approval",
      "type": "event"
    },
    {
      "anonymous": false,
      "inputs": [
        {
          "indexed": true,
          "internalType": "address",
          "name": "owner",
          "type": "address"
        },
        {
          "indexed": true,
          "internalType": "address",
          "name": "operator",
          "type": "address"
        },
        {
          "indexed": false,
          "internalType": "bool",
          "name": "approved",
          "type": "bool"
        }
      ],
      "name": "ApprovalForAll",
      "type": "event"
    },
    {
      "anonymous": false,
      "inputs": [
        {
          "indexed": true,
          "internalType": "address",
          "name": "previousOwner",
          "type": "address"
        },
        {
          "indexed": true,
          "internalType": "address",
          "name": "newOwner",
          "type": "address"
        }
      ],
      "name": "OwnershipTransferred",
      "type": "event"
    },
    {
      "anonymous": false,
      "inputs": [
        {
          "indexed": true,
          "internalType": "address",
          "name": "from",
          "type": "address"
        },
        {
          "indexed": true,
          "internalType": "address",
          "name": "to",
          "type": "address"
        },
        {
          "indexed": true,
          "internalType": "uint256",
          "name": "tokenId",
          "type": "uint256"
        }
      ],
      "name": "Transfer",
      "type": "event"
    },
    {
      "inputs": [
        {
          "internalType": "address",
          "name": "to",
          "type": "address"
        },
        {
          "internalType": "uint256",
          "name": "tokenId",
          "type": "uint256"
        }
      ],
      "name": "approve",
      "outputs": [],
      "stateMutability": "nonpayable",
      "type": "function"
    },
    {
      "inputs": [
        {
          "internalType": "address",
          "name": "owner",
          "type": "address"
        }
      ],
      "name": "balanceOf",
      "outputs": [
        {
          "internalType": "uint256",
          "name": "",
          "type": "uint256"
        }
      ],
      "stateMutability": "view",
      "type": "function",
      "constant": true
    },
    {
      "inputs": [],
      "name": "baseURI",
      "outputs": [
        {
          "internalType": "string",
          "name": "",
          "type": "string"
        }
      ],
      "stateMutability": "view",
      "type": "function",
      "constant": true
    },
    {
      "inputs": [
        {
          "internalType": "uint256",
          "name": "tokenId",
          "type": "uint256"
        }
      ],
      "name": "burn",
      "outputs": [],
      "stateMutability": "nonpayable",
      "type": "function"
    },
    {
      "inputs": [
        {
          "internalType": "uint256",
          "name": "tokenId",
          "type": "uint256"
        }
      ],
      "name": "getApproved",
      "outputs": [
        {
          "internalType": "address",
          "name": "",
          "type": "address"
        }
      ],
      "stateMutability": "view",
      "type": "function",
      "constant": true
    },
    {
      "inputs": [
        {
          "internalType": "address",
          "name": "owner",
          "type": "address"
        },
        {
          "internalType": "address",
          "name": "operator",
          "type": "address"
        }
      ],
      "name": "isApprovedForAll",
      "outputs": [
        {
          "internalType": "bool",
          "name": "",
          "type": "bool"
        }
      ],
      "stateMutability": "view",
      "type": "function",
      "constant": true
    },
    {
      "inputs": [],
      "name": "name",
      "outputs": [
        {
          "internalType": "string",
          "name": "",
          "type": "string"
        }
      ],
      "stateMutability": "view",
      "type": "function",
      "constant": true
    },
    {
      "inputs": [],
      "name": "owner",
      "outputs": [
        {
          "internalType": "address",
          "name": "",
          "type": "address"
        }
      ],
      "stateMutability": "view",
      "type": "function",
      "constant": true
    },
    {
      "inputs": [
        {
          "internalType": "uint256",
          "name": "tokenId",
          "type": "uint256"
        }
      ],
      "name": "ownerOf",
      "outputs": [
        {
          "internalType": "address",
          "name": "",
          "type": "address"
        }
      ],
      "stateMutability": "view",
      "type": "function",
      "constant": true
    },
    {
      "inputs": [],
      "name": "renounceOwnership",
      "outputs": [],
      "stateMutability": "nonpayable",
      "type": "function"
    },
    {
      "inputs": [
        {
          "internalType": "address",
          "name": "from",
          "type": "address"
        },
        {
          "internalType": "address",
          "name": "to",
          "type": "address"
        },
        {
          "internalType": "uint256",
          "name": "tokenId",
          "type": "uint256"
        }
      ],
      "name": "safeTransferFrom",
      "outputs": [],
      "stateMutability": "nonpayable",
      "type": "function"
    },
    {
      "inputs": [
        {
          "internalType": "address",
          "name": "from",
          "type": "address"
        },
        {
          "internalType": "address",
          "name": "to",
          "type": "address"
        },
        {
          "internalType": "uint256",
          "name": "tokenId",
          "type": "uint256"
        },
        {
          "internalType": "bytes",
          "name": "_data",
          "type": "bytes"
        }
      ],
      "name": "safeTransferFrom",
      "outputs": [],
      "stateMutability": "nonpayable",
      "type": "function"
    },
    {
      "inputs": [
        {
          "internalType": "address",
          "name": "operator",
          "type": "address"
        },
        {
          "internalType": "bool",
          "name": "approved",
          "type": "bool"
        }
      ],
      "name": "setApprovalForAll",
      "outputs": [],
      "stateMutability": "nonpayable",
      "type": "function"
    },
    {
      "inputs": [
        {
          "internalType": "bytes4",
          "name": "interfaceId",
          "type": "bytes4"
        }
      ],
      "name": "supportsInterface",
      "outputs": [
        {
          "internalType": "bool",
          "name": "",
          "type": "bool"
        }
      ],
      "stateMutability": "view",
      "type": "function",
      "constant": true
    },
    {
      "inputs": [],
      "name": "symbol",
      "outputs": [
        {
          "internalType": "string",
          "name": "",
          "type": "string"
        }
      ],
      "stateMutability": "view",
      "type": "function",
      "constant": true
    },
    {
      "inputs": [
        {
          "internalType": "uint256",
          "name": "index",
          "type": "uint256"
        }
      ],
      "name": "tokenByIndex",
      "outputs": [
        {
          "internalType": "uint256",
          "name": "",
          "type": "uint256"
        }
      ],
      "stateMutability": "view",
      "type": "function",
      "constant": true
    },
    {
      "inputs": [
        {
          "internalType": "address",
          "name": "owner",
          "type": "address"
        },
        {
          "internalType": "uint256",
          "name": "index",
          "type": "uint256"
        }
      ],
      "name": "tokenOfOwnerByIndex",
      "outputs": [
        {
          "internalType": "uint256",
          "name": "",
          "type": "uint256"
        }
      ],
      "stateMutability": "view",
      "type": "function",
      "constant": true
    },
    {
      "inputs": [
        {
          "internalType": "uint256",
          "name": "tokenId",
          "type": "uint256"
        }
      ],
      "name": "tokenURI",
      "outputs": [
        {
          "internalType": "string",
          "name": "",
          "type": "string"
        }
      ],
      "stateMutability": "view",
      "type": "function",
      "constant": true
    },
    {
      "inputs": [],
      "name": "totalSupply",
      "outputs": [
        {
          "internalType": "uint256",
          "name": "",
          "type": "uint256"
        }
      ],
      "stateMutability": "view",
      "type": "function",
      "constant": true
    },
    {
      "inputs": [
        {
          "internalType": "address",
          "name": "from",
          "type": "address"
        },
        {
          "internalType": "address",
          "name": "to",
          "type": "address"
        },
        {
          "internalType": "uint256",
          "name": "tokenId",
          "type": "uint256"
        }
      ],
      "name": "transferFrom",
      "outputs": [],
      "stateMutability": "nonpayable",
      "type": "function"
    },
    {
      "inputs": [
        {
          "internalType": "address",
          "name": "newOwner",
          "type": "address"
        }
      ],
      "name": "transferOwnership",
      "outputs": [],
      "stateMutability": "nonpayable",
      "type": "function"
    },
    {
      "inputs": [
        {
          "internalType": "string",
          "name": "aliasName",
          "type": "string"
        }
      ],
      "name": "register",
      "outputs": [],
      "stateMutability": "nonpayable",
      "type": "function"
    },
    {
      "inputs": [],
      "name": "getAllIssuers",
      "outputs": [
        {
          "components": [
            {
              "internalType": "address",
              "name": "Address",
              "type": "address"
            },
            {
              "internalType": "string",
              "name": "Alias",
              "type": "string"
            }
          ],
          "internalType": "struct O10Identity.IssuerDetails[]",
          "name": "",
          "type": "tuple[]"
        }
      ],
      "stateMutability": "view",
      "type": "function",
      "constant": true
    },
    {
      "inputs": [
        {
          "components": [
            {
              "internalType": "string",
              "name": "AttributeName",
              "type": "string"
            },
            {
              "internalType": "string",
              "name": "AttributeScheme",
              "type": "string"
            },
            {
              "internalType": "string",
              "name": "Alias",
              "type": "string"
            },
            {
              "internalType": "bool",
              "name": "IsRoot",
              "type": "bool"
            }
          ],
          "internalType": "struct O10Identity.AttributeDefinition[]",
          "name": "definitions",
          "type": "tuple[]"
        }
      ],
      "name": "setScheme",
      "outputs": [],
      "stateMutability": "nonpayable",
      "type": "function"
    },
    {
      "inputs": [
        {
          "internalType": "address",
          "name": "issuerAddr",
          "type": "address"
        }
      ],
      "name": "getScheme",
      "outputs": [
        {
          "internalType": "uint256",
          "name": "",
          "type": "uint256"
        },
        {
          "components": [
            {
              "internalType": "string",
              "name": "AttributeName",
              "type": "string"
            },
            {
              "internalType": "string",
              "name": "AttributeScheme",
              "type": "string"
            },
            {
              "internalType": "string",
              "name": "Alias",
              "type": "string"
            },
            {
              "internalType": "bool",
              "name": "IsRoot",
              "type": "bool"
            }
          ],
          "internalType": "struct O10Identity.AttributeDefinition[]",
          "name": "",
          "type": "tuple[]"
        }
      ],
      "stateMutability": "view",
      "type": "function",
      "constant": true
    },
    {
      "inputs": [
        {
          "components": [
            {
              "internalType": "bytes32",
              "name": "BindingCommitment",
              "type": "bytes32"
            },
            {
              "internalType": "bytes32",
              "name": "AssetCommitment",
              "type": "bytes32"
            },
            {
              "internalType": "string",
              "name": "AttributeName",
              "type": "string"
            },
            {
              "internalType": "int256",
              "name": "Version",
              "type": "int256"
            },
            {
              "internalType": "uint256",
              "name": "AttributeId",
              "type": "uint256"
            }
          ],
          "internalType": "struct O10Identity.AttributeRecord[]",
          "name": "attributeRecords",
          "type": "tuple[]"
        }
      ],
      "name": "issueAttributes",
      "outputs": [],
      "stateMutability": "nonpayable",
      "type": "function"
    }
  ],
  "bytecode": "0x60806040523480156200001157600080fd5b5060405162005a4b38038062005a4b833981810160405262000037919081019062000371565b8181620000516301ffc9a760e01b6200018660201b60201c565b81600690805190602001906200006992919062000266565b5080600790805190602001906200008292919062000266565b506200009b6380ac58cd60e01b6200018660201b60201c565b620000b3635b5e139f60e01b6200018660201b60201c565b620000cb63780e9d6360e01b6200018660201b60201c565b50506000620000df6200025e60201b60201c565b905080600a60006101000a81548173ffffffffffffffffffffffffffffffffffffffff021916908373ffffffffffffffffffffffffffffffffffffffff1602179055508073ffffffffffffffffffffffffffffffffffffffff16600073ffffffffffffffffffffffffffffffffffffffff167f8be0079c531659141344cd1fd0a4f28419497f9722a3daafe3b4186f6b6457e060405160405180910390a3505050620004ea565b63ffffffff60e01b817bffffffffffffffffffffffffffffffffffffffffffffffffffffffff19161415620001f2576040517f08c379a0000000000000000000000000000000000000000000000000000000008152600401620001e99062000426565b60405180910390fd5b6001600080837bffffffffffffffffffffffffffffffffffffffffffffffffffffffff19167bffffffffffffffffffffffffffffffffffffffffffffffffffffffff1916815260200190815260200160002060006101000a81548160ff02191690831515021790555050565b600033905090565b828054600181600116156101000203166002900490600052602060002090601f016020900481019282601f10620002a957805160ff1916838001178555620002da565b82800160010185558215620002da579182015b82811115620002d9578251825591602001919060010190620002bc565b5b509050620002e99190620002ed565b5090565b6200031291905b808211156200030e576000816000905550600101620002f4565b5090565b90565b600082601f8301126200032757600080fd5b81516200033e620003388262000476565b62000448565b915080825260208301602083018583830111156200035b57600080fd5b62000368838284620004b4565b50505092915050565b600080604083850312156200038557600080fd5b600083015167ffffffffffffffff811115620003a057600080fd5b620003ae8582860162000315565b925050602083015167ffffffffffffffff811115620003cc57600080fd5b620003da8582860162000315565b9150509250929050565b6000620003f3601c83620004a3565b91507f4552433136353a20696e76616c696420696e74657266616365206964000000006000830152602082019050919050565b600060208201905081810360008301526200044181620003e4565b9050919050565b6000604051905081810181811067ffffffffffffffff821117156200046c57600080fd5b8060405250919050565b600067ffffffffffffffff8211156200048e57600080fd5b601f19601f8301169050602081019050919050565b600082825260208201905092915050565b60005b83811015620004d4578082015181840152602081019050620004b7565b83811115620004e4576000848401525b50505050565b61555180620004fa6000396000f3fe608060405234801561001057600080fd5b506004361061018e5760003560e01c80636352211e116100de578063a22cb46511610097578063e985e9c511610071578063e985e9c514610496578063e9c88cf7146104c6578063f2c298be146104e2578063f2fde38b146104fe5761018e565b8063a22cb4651461042e578063b88d4fde1461044a578063c87b56dd146104665761018e565b80636352211e1461036a5780636c0360eb1461039a57806370a08231146103b8578063715018a6146103e85780638da5cb5b146103f257806395d89b41146104105761018e565b80632f745c591161014b57806342842e0e1161012557806342842e0e146102e457806342966c68146103005780634c32c35c1461031c5780634f6ccce71461033a5761018e565b80632f745c591461026757806335009059146102975780633730ab40146102b35761018e565b806301ffc9a71461019357806306fdde03146101c3578063081812fc146101e1578063095ea7b31461021157806318160ddd1461022d57806323b872dd1461024b575b600080fd5b6101ad60048036036101a89190810190613efa565b61051a565b6040516101ba9190614daf565b60405180910390f35b6101cb610581565b6040516101d89190614dca565b60405180910390f35b6101fb60048036036101f69190810190613f8d565b610623565b6040516102089190614d26565b60405180910390f35b61022b60048036036102269190810190613e3c565b6106a8565b005b6102356107c0565b604051610242919061510c565b60405180910390f35b61026560048036036102609190810190613d36565b6107d1565b005b610281600480360361027c9190810190613e3c565b610831565b60405161028e919061510c565b60405180910390f35b6102b160048036036102ac9190810190613eb9565b61088c565b005b6102cd60048036036102c89190810190613cd1565b611068565b6040516102db929190615127565b60405180910390f35b6102fe60048036036102f99190810190613d36565b611524565b005b61031a60048036036103159190810190613f8d565b611544565b005b6103246115a0565b6040516103319190614d8d565b60405180910390f35b610354600480360361034f9190810190613f8d565b61178a565b604051610361919061510c565b60405180910390f35b610384600480360361037f9190810190613f8d565b6117ad565b6040516103919190614d26565b60405180910390f35b6103a26117e4565b6040516103af9190614dca565b60405180910390f35b6103d260048036036103cd9190810190613cd1565b611886565b6040516103df919061510c565b60405180910390f35b6103f0611945565b005b6103fa611a9d565b6040516104079190614d26565b60405180910390f35b610418611ac7565b6040516104259190614dca565b60405180910390f35b61044860048036036104439190810190613e00565b611b69565b005b610464600480360361045f9190810190613d85565b611cea565b005b610480600480360361047b9190810190613f8d565b611d4c565b60405161048d9190614dca565b60405180910390f35b6104b060048036036104ab9190810190613cfa565b611ed7565b6040516104bd9190614daf565b60405180910390f35b6104e060048036036104db9190810190613e78565b611f6b565b005b6104fc60048036036104f79190810190613f4c565b612285565b005b61051860048036036105139190810190613cd1565b61242a565b005b6000806000837bffffffffffffffffffffffffffffffffffffffffffffffffffffffff19167bffffffffffffffffffffffffffffffffffffffffffffffffffffffff1916815260200190815260200160002060009054906101000a900460ff169050919050565b606060068054600181600116156101000203166002900480601f0160208091040260200160405190810160405280929190818152602001828054600181600116156101000203166002900480156106195780601f106105ee57610100808354040283529160200191610619565b820191906000526020600020905b8154815290600101906020018083116105fc57829003601f168201915b5050505050905090565b600061062e826125f1565b61066d576040517f08c379a000000000000000000000000000000000000000000000000000000000815260040161066490614fac565b60405180910390fd5b6004600083815260200190815260200160002060009054906101000a900473ffffffffffffffffffffffffffffffffffffffff169050919050565b60006106b3826117ad565b90508073ffffffffffffffffffffffffffffffffffffffff168373ffffffffffffffffffffffffffffffffffffffff161415610724576040517f08c379a000000000000000000000000000000000000000000000000000000000815260040161071b9061504c565b60405180910390fd5b8073ffffffffffffffffffffffffffffffffffffffff1661074361260e565b73ffffffffffffffffffffffffffffffffffffffff16148061077257506107718161076c61260e565b611ed7565b5b6107b1576040517f08c379a00000000000000000000000000000000000000000000000000000000081526004016107a890614f2c565b60405180910390fd5b6107bb8383612616565b505050565b60006107cc60026126cf565b905090565b6107e26107dc61260e565b826126e4565b610821576040517f08c379a00000000000000000000000000000000000000000000000000000000081526004016108189061506c565b60405180910390fd5b61082c8383836127c2565b505050565b600061088482600160008673ffffffffffffffffffffffffffffffffffffffff1673ffffffffffffffffffffffffffffffffffffffff1681526020019081526020016000206129d990919063ffffffff16565b905092915050565b6000339050600c60008273ffffffffffffffffffffffffffffffffffffffff1673ffffffffffffffffffffffffffffffffffffffff16815260200190815260200160002060020160009054906101000a900460ff1615610921576040517f08c379a000000000000000000000000000000000000000000000000000000000815260040161091890614e2c565b60405180910390fd5b600061096d600c60008473ffffffffffffffffffffffffffffffffffffffff1673ffffffffffffffffffffffffffffffffffffffff1681526020019081526020016000206003016129f3565b116109ad576040517f08c379a00000000000000000000000000000000000000000000000000000000081526004016109a4906150ac565b60405180910390fd5b60006109f9600c60008473ffffffffffffffffffffffffffffffffffffffff1673ffffffffffffffffffffffffffffffffffffffff1681526020019081526020016000206003016129f3565b90506060600c60008473ffffffffffffffffffffffffffffffffffffffff1673ffffffffffffffffffffffffffffffffffffffff168152602001908152602001600020600501600083815260200190815260200160002080549050604051908082528060200260200182016040528015610a8d57816020015b610a7a6137b7565b815260200190600190039081610a725790505b50905060008090505b8151811015610b9657600080905060008090505b8651811015610b4757838381518110610abf57fe5b602002602001015160000151604051602001610adb9190614ceb565b60405160208183030381529060405280519060200120878281518110610afd57fe5b602002602001015160400151604051602001610b199190614ceb565b604051602081830303815290604052805190602001201415610b3a57600191505b8080600101915050610aaa565b5080610b88576040517f08c379a0000000000000000000000000000000000000000000000000000000008152600401610b7f9061502c565b60405180910390fd5b508080600101915050610a96565b5060008090505b845181101561106157610bf0600c60008673ffffffffffffffffffffffffffffffffffffffff1673ffffffffffffffffffffffffffffffffffffffff168152602001908152602001600020600401612a01565b6000600c60008673ffffffffffffffffffffffffffffffffffffffff1673ffffffffffffffffffffffffffffffffffffffff1681526020019081526020016000206009016000878481518110610c4257fe5b6020026020010151600001518152602001908152602001600020600401541115610cdd57610cdc600c60008673ffffffffffffffffffffffffffffffffffffffff1673ffffffffffffffffffffffffffffffffffffffff1681526020019081526020016000206009016000878481518110610cb957fe5b602002602001015160000151815260200190815260200160002060040154612a17565b5b6000610d29600c60008773ffffffffffffffffffffffffffffffffffffffff1673ffffffffffffffffffffffffffffffffffffffff1681526020019081526020016000206004016129f3565b905080868381518110610d3857fe5b60200260200101516080018181525050600c60008673ffffffffffffffffffffffffffffffffffffffff1673ffffffffffffffffffffffffffffffffffffffff168152602001908152602001600020600601868381518110610d9657fe5b6020026020010151908060018154018082558091505060019003906000526020600020906005020160009091909190915060008201518160000155602082015181600101556040820151816002019080519060200190610df79291906137e1565b5060608201518160030155608082015181600401555050858281518110610e1a57fe5b6020026020010151600c60008773ffffffffffffffffffffffffffffffffffffffff1673ffffffffffffffffffffffffffffffffffffffff168152602001908152602001600020600701600083815260200190815260200160002060008201518160000155602082015181600101556040820151816002019080519060200190610ea59291906137e1565b506060820151816003015560808201518160040155905050858281518110610ec957fe5b6020026020010151600c60008773ffffffffffffffffffffffffffffffffffffffff1673ffffffffffffffffffffffffffffffffffffffff1681526020019081526020016000206008016000888581518110610f2157fe5b602002602001015160200151815260200190815260200160002060008201518160000155602082015181600101556040820151816002019080519060200190610f6b9291906137e1565b506060820151816003015560808201518160040155905050858281518110610f8f57fe5b6020026020010151600c60008773ffffffffffffffffffffffffffffffffffffffff1673ffffffffffffffffffffffffffffffffffffffff1681526020019081526020016000206009016000888581518110610fe757fe5b6020026020010151600001518152602001908152602001600020600082015181600001556020820151816001015560408201518160020190805190602001906110319291906137e1565b5060608201518160030155608082015181600401559050506110538582612b51565b508080600101915050610b9d565b5050505050565b60006060600c60008473ffffffffffffffffffffffffffffffffffffffff1673ffffffffffffffffffffffffffffffffffffffff16815260200190815260200160002060020160009054906101000a900460ff16156110fc576040517f08c379a00000000000000000000000000000000000000000000000000000000081526004016110f390614e2c565b60405180910390fd5b6000611148600c60008673ffffffffffffffffffffffffffffffffffffffff1673ffffffffffffffffffffffffffffffffffffffff1681526020019081526020016000206003016129f3565b11611188576040517f08c379a000000000000000000000000000000000000000000000000000000000815260040161117f906150ac565b60405180910390fd5b60006111d4600c60008673ffffffffffffffffffffffffffffffffffffffff1673ffffffffffffffffffffffffffffffffffffffff1681526020019081526020016000206003016129f3565b90506060600c60008673ffffffffffffffffffffffffffffffffffffffff1673ffffffffffffffffffffffffffffffffffffffff16815260200190815260200160002060050160008381526020019081526020016000208054905060405190808252806020026020018201604052801561126857816020015b6112556137b7565b81526020019060019003908161124d5790505b50905060008090505b815181101561151657600c60008773ffffffffffffffffffffffffffffffffffffffff1673ffffffffffffffffffffffffffffffffffffffff168152602001908152602001600020600501600084815260200190815260200160002081815481106112d857fe5b9060005260206000209060040201604051806080016040529081600082018054600181600116156101000203166002900480601f01602080910402602001604051908101604052809291908181526020018280546001816001161561010002031660029004801561138a5780601f1061135f5761010080835404028352916020019161138a565b820191906000526020600020905b81548152906001019060200180831161136d57829003601f168201915b50505050508152602001600182018054600181600116156101000203166002900480601f01602080910402602001604051908101604052809291908181526020018280546001816001161561010002031660029004801561142c5780601f106114015761010080835404028352916020019161142c565b820191906000526020600020905b81548152906001019060200180831161140f57829003601f168201915b50505050508152602001600282018054600181600116156101000203166002900480601f0160208091040260200160405190810160405280929190818152602001828054600181600116156101000203166002900480156114ce5780601f106114a3576101008083540402835291602001916114ce565b820191906000526020600020905b8154815290600101906020018083116114b157829003601f168201915b505050505081526020016003820160009054906101000a900460ff1615151515815250508282815181106114fe57fe5b60200260200101819052508080600101915050611271565b508181935093505050915091565b61153f83838360405180602001604052806000815250611cea565b505050565b61155561154f61260e565b826126e4565b611594576040517f08c379a000000000000000000000000000000000000000000000000000000000815260040161158b906150cc565b60405180910390fd5b61159d81612a17565b50565b6060806115ad600d612cdf565b6040519080825280602002602001820160405280156115e657816020015b6115d3613861565b8152602001906001900390816115cb5790505b50905060008090505b6115f9600d612cdf565b81101561178257600061161682600d612cf490919063ffffffff16565b9050600c60008273ffffffffffffffffffffffffffffffffffffffff1673ffffffffffffffffffffffffffffffffffffffff1681526020019081526020016000206000016040518060400160405290816000820160009054906101000a900473ffffffffffffffffffffffffffffffffffffffff1673ffffffffffffffffffffffffffffffffffffffff1673ffffffffffffffffffffffffffffffffffffffff168152602001600182018054600181600116156101000203166002900480601f0160208091040260200160405190810160405280929190818152602001828054600181600116156101000203166002900480156117545780601f1061172957610100808354040283529160200191611754565b820191906000526020600020905b81548152906001019060200180831161173757829003601f168201915b50505050508152505083838151811061176957fe5b60200260200101819052505080806001019150506115ef565b508091505090565b6000806117a1836002612d0e90919063ffffffff16565b50905080915050919050565b60006117dd826040518060600160405280602981526020016154f3602991396002612d3d9092919063ffffffff16565b9050919050565b606060098054600181600116156101000203166002900480601f01602080910402602001604051908101604052809291908181526020018280546001816001161561010002031660029004801561187c5780601f106118515761010080835404028352916020019161187c565b820191906000526020600020905b81548152906001019060200180831161185f57829003601f168201915b5050505050905090565b60008073ffffffffffffffffffffffffffffffffffffffff168273ffffffffffffffffffffffffffffffffffffffff1614156118f7576040517f08c379a00000000000000000000000000000000000000000000000000000000081526004016118ee90614f4c565b60405180910390fd5b61193e600160008473ffffffffffffffffffffffffffffffffffffffff1673ffffffffffffffffffffffffffffffffffffffff168152602001908152602001600020612d5c565b9050919050565b61194d61260e565b73ffffffffffffffffffffffffffffffffffffffff16600a60009054906101000a900473ffffffffffffffffffffffffffffffffffffffff1673ffffffffffffffffffffffffffffffffffffffff16146119dc576040517f08c379a00000000000000000000000000000000000000000000000000000000081526004016119d390614fcc565b60405180910390fd5b600073ffffffffffffffffffffffffffffffffffffffff16600a60009054906101000a900473ffffffffffffffffffffffffffffffffffffffff1673ffffffffffffffffffffffffffffffffffffffff167f8be0079c531659141344cd1fd0a4f28419497f9722a3daafe3b4186f6b6457e060405160405180910390a36000600a60006101000a81548173ffffffffffffffffffffffffffffffffffffffff021916908373ffffffffffffffffffffffffffffffffffffffff160217905550565b6000600a60009054906101000a900473ffffffffffffffffffffffffffffffffffffffff16905090565b606060078054600181600116156101000203166002900480601f016020809104026020016040519081016040528092919081815260200182805460018160011615610100020316600290048015611b5f5780601f10611b3457610100808354040283529160200191611b5f565b820191906000526020600020905b815481529060010190602001808311611b4257829003601f168201915b5050505050905090565b611b7161260e565b73ffffffffffffffffffffffffffffffffffffffff168273ffffffffffffffffffffffffffffffffffffffff161415611bdf576040517f08c379a0000000000000000000000000000000000000000000000000000000008152600401611bd690614ecc565b60405180910390fd5b8060056000611bec61260e565b73ffffffffffffffffffffffffffffffffffffffff1673ffffffffffffffffffffffffffffffffffffffff16815260200190815260200160002060008473ffffffffffffffffffffffffffffffffffffffff1673ffffffffffffffffffffffffffffffffffffffff16815260200190815260200160002060006101000a81548160ff0219169083151502179055508173ffffffffffffffffffffffffffffffffffffffff16611c9961260e565b73ffffffffffffffffffffffffffffffffffffffff167f17307eab39ab6107e8899845ad3d59bd9653f200f220920489ca2b5937696c3183604051611cde9190614daf565b60405180910390a35050565b611cfb611cf561260e565b836126e4565b611d3a576040517f08c379a0000000000000000000000000000000000000000000000000000000008152600401611d319061506c565b60405180910390fd5b611d4684848484612d71565b50505050565b6060611d57826125f1565b611d96576040517f08c379a0000000000000000000000000000000000000000000000000000000008152600401611d8d9061500c565b60405180910390fd5b6060600860008481526020019081526020016000208054600181600116156101000203166002900480601f016020809104026020016040519081016040528092919081815260200182805460018160011615610100020316600290048015611e3f5780601f10611e1457610100808354040283529160200191611e3f565b820191906000526020600020905b815481529060010190602001808311611e2257829003601f168201915b50505050509050600060098054600181600116156101000203166002900490501415611e6e5780915050611ed2565b600081511115611ea357600981604051602001611e8c929190614d02565b604051602081830303815290604052915050611ed2565b6009611eae84612dcd565b604051602001611ebf929190614d02565b6040516020818303038152906040529150505b919050565b6000600560008473ffffffffffffffffffffffffffffffffffffffff1673ffffffffffffffffffffffffffffffffffffffff16815260200190815260200160002060008373ffffffffffffffffffffffffffffffffffffffff1673ffffffffffffffffffffffffffffffffffffffff16815260200190815260200160002060009054906101000a900460ff16905092915050565b6000339050600c60008273ffffffffffffffffffffffffffffffffffffffff1673ffffffffffffffffffffffffffffffffffffffff16815260200190815260200160002060020160009054906101000a900460ff16611fff576040517f08c379a0000000000000000000000000000000000000000000000000000000008152600401611ff690614e2c565b60405180910390fd5b6000825111612043576040517f08c379a000000000000000000000000000000000000000000000000000000000815260040161203a906150ec565b60405180910390fd5b600080905060008090505b83518110156120865783818151811061206357fe5b6020026020010151606001511561207957600191505b808060010191505061204e565b50806120c7576040517f08c379a00000000000000000000000000000000000000000000000000000000081526004016120be90614e8c565b60405180910390fd5b612111600c60008473ffffffffffffffffffffffffffffffffffffffff1673ffffffffffffffffffffffffffffffffffffffff168152602001908152602001600020600301612a01565b60008090505b835181101561227f57600c60008473ffffffffffffffffffffffffffffffffffffffff1673ffffffffffffffffffffffffffffffffffffffff16815260200190815260200160002060050160006121ae600c60008773ffffffffffffffffffffffffffffffffffffffff1673ffffffffffffffffffffffffffffffffffffffff1681526020019081526020016000206003016129f3565b81526020019081526020016000208482815181106121c857fe5b6020026020010151908060018154018082558091505060019003906000526020600020906004020160009091909190915060008201518160000190805190602001906122159291906137e1565b5060208201518160010190805190602001906122329291906137e1565b50604082015181600201908051906020019061224f9291906137e1565b5060608201518160030160006101000a81548160ff02191690831515021790555050508080600101915050612117565b50505050565b6000339050600c60008273ffffffffffffffffffffffffffffffffffffffff1673ffffffffffffffffffffffffffffffffffffffff16815260200190815260200160002060020160009054906101000a900460ff161561231a576040517f08c379a000000000000000000000000000000000000000000000000000000000815260040161231190614f0c565b60405180910390fd5b6000600c60008373ffffffffffffffffffffffffffffffffffffffff1673ffffffffffffffffffffffffffffffffffffffff168152602001908152602001600020905060018160020160006101000a81548160ff02191690831515021790555060405180604001604052808373ffffffffffffffffffffffffffffffffffffffff168152602001848152508160000160008201518160000160006101000a81548173ffffffffffffffffffffffffffffffffffffffff021916908373ffffffffffffffffffffffffffffffffffffffff160217905550602082015181600101908051906020019061240c9291906137e1565b5090505061242482600d612efd90919063ffffffff16565b50505050565b61243261260e565b73ffffffffffffffffffffffffffffffffffffffff16600a60009054906101000a900473ffffffffffffffffffffffffffffffffffffffff1673ffffffffffffffffffffffffffffffffffffffff16146124c1576040517f08c379a00000000000000000000000000000000000000000000000000000000081526004016124b890614fcc565b60405180910390fd5b600073ffffffffffffffffffffffffffffffffffffffff168173ffffffffffffffffffffffffffffffffffffffff161415612531576040517f08c379a000000000000000000000000000000000000000000000000000000000815260040161252890614e4c565b60405180910390fd5b8073ffffffffffffffffffffffffffffffffffffffff16600a60009054906101000a900473ffffffffffffffffffffffffffffffffffffffff1673ffffffffffffffffffffffffffffffffffffffff167f8be0079c531659141344cd1fd0a4f28419497f9722a3daafe3b4186f6b6457e060405160405180910390a380600a60006101000a81548173ffffffffffffffffffffffffffffffffffffffff021916908373ffffffffffffffffffffffffffffffffffffffff16021790555050565b6000612607826002612f2d90919063ffffffff16565b9050919050565b600033905090565b816004600083815260200190815260200160002060006101000a81548173ffffffffffffffffffffffffffffffffffffffff021916908373ffffffffffffffffffffffffffffffffffffffff160217905550808273ffffffffffffffffffffffffffffffffffffffff16612689836117ad565b73ffffffffffffffffffffffffffffffffffffffff167f8c5be1e5ebec7d5bd14f71427d1e84f3dd0314c0f7b2291e5b200ac8c7c3b92560405160405180910390a45050565b60006126dd82600001612f47565b9050919050565b60006126ef826125f1565b61272e576040517f08c379a000000000000000000000000000000000000000000000000000000000815260040161272590614eec565b60405180910390fd5b6000612739836117ad565b90508073ffffffffffffffffffffffffffffffffffffffff168473ffffffffffffffffffffffffffffffffffffffff1614806127a857508373ffffffffffffffffffffffffffffffffffffffff1661279084610623565b73ffffffffffffffffffffffffffffffffffffffff16145b806127b957506127b88185611ed7565b5b91505092915050565b8273ffffffffffffffffffffffffffffffffffffffff166127e2826117ad565b73ffffffffffffffffffffffffffffffffffffffff1614612838576040517f08c379a000000000000000000000000000000000000000000000000000000000815260040161282f90614fec565b60405180910390fd5b600073ffffffffffffffffffffffffffffffffffffffff168273ffffffffffffffffffffffffffffffffffffffff1614156128a8576040517f08c379a000000000000000000000000000000000000000000000000000000000815260040161289f90614eac565b60405180910390fd5b6128b3838383612f58565b6128be600082612616565b61290f81600160008673ffffffffffffffffffffffffffffffffffffffff1673ffffffffffffffffffffffffffffffffffffffff168152602001908152602001600020612f5d90919063ffffffff16565b5061296181600160008573ffffffffffffffffffffffffffffffffffffffff1673ffffffffffffffffffffffffffffffffffffffff168152602001908152602001600020612f7790919063ffffffff16565b5061297881836002612f919092919063ffffffff16565b50808273ffffffffffffffffffffffffffffffffffffffff168473ffffffffffffffffffffffffffffffffffffffff167fddf252ad1be2c89b69c2b068fc378daa952ba7f163c4a11628f55a4df523b3ef60405160405180910390a4505050565b60006129e88360000183612fc6565b60001c905092915050565b600081600001549050919050565b6001816000016000828254019250508190555050565b6000612a22826117ad565b9050612a3081600084612f58565b612a3b600083612616565b60006008600084815260200190815260200160002080546001816001161561010002031660029004905014612a8a57600860008381526020019081526020016000206000612a899190613891565b5b612adb82600160008473ffffffffffffffffffffffffffffffffffffffff1673ffffffffffffffffffffffffffffffffffffffff168152602001908152602001600020612f5d90919063ffffffff16565b50612af082600261303390919063ffffffff16565b5081600073ffffffffffffffffffffffffffffffffffffffff168273ffffffffffffffffffffffffffffffffffffffff167fddf252ad1be2c89b69c2b068fc378daa952ba7f163c4a11628f55a4df523b3ef60405160405180910390a45050565b600073ffffffffffffffffffffffffffffffffffffffff168273ffffffffffffffffffffffffffffffffffffffff161415612bc1576040517f08c379a0000000000000000000000000000000000000000000000000000000008152600401612bb890614f8c565b60405180910390fd5b612bca816125f1565b15612c0a576040517f08c379a0000000000000000000000000000000000000000000000000000000008152600401612c0190614e6c565b60405180910390fd5b612c1660008383612f58565b612c6781600160008573ffffffffffffffffffffffffffffffffffffffff1673ffffffffffffffffffffffffffffffffffffffff168152602001908152602001600020612f7790919063ffffffff16565b50612c7e81836002612f919092919063ffffffff16565b50808273ffffffffffffffffffffffffffffffffffffffff16600073ffffffffffffffffffffffffffffffffffffffff167fddf252ad1be2c89b69c2b068fc378daa952ba7f163c4a11628f55a4df523b3ef60405160405180910390a45050565b6000612ced8260000161304d565b9050919050565b6000612d038360000183612fc6565b60001c905092915050565b600080600080612d21866000018661305e565b915091508160001c8160001c8090509350935050509250929050565b6000612d50846000018460001b846130e1565b60001c90509392505050565b6000612d6a8260000161304d565b9050919050565b612d7c8484846127c2565b612d8884848484613172565b612dc7576040517f08c379a0000000000000000000000000000000000000000000000000000000008152600401612dbe90614e0c565b60405180910390fd5b50505050565b60606000821415612e15576040518060400160405280600181526020017f30000000000000000000000000000000000000000000000000000000000000008152509050612ef8565b600082905060005b60008214612e3f578080600101915050600a8281612e3757fe5b049150612e1d565b6060816040519080825280601f01601f191660200182016040528015612e745781602001600182028038833980820191505090505b50905060006001830390508593505b60008414612ef057600a8481612e9557fe5b0660300160f81b82828060019003935081518110612eaf57fe5b60200101907effffffffffffffffffffffffffffffffffffffffffffffffffffffffffffff1916908160001a905350600a8481612ee857fe5b049350612e83565b819450505050505b919050565b6000612f25836000018373ffffffffffffffffffffffffffffffffffffffff1660001b6132d6565b905092915050565b6000612f3f836000018360001b613346565b905092915050565b600081600001805490509050919050565b505050565b6000612f6f836000018360001b613369565b905092915050565b6000612f89836000018360001b6132d6565b905092915050565b6000612fbd846000018460001b8473ffffffffffffffffffffffffffffffffffffffff1660001b613451565b90509392505050565b600081836000018054905011613011576040517f08c379a000000000000000000000000000000000000000000000000000000000815260040161300890614dec565b60405180910390fd5b82600001828154811061302057fe5b9060005260206000200154905092915050565b6000613045836000018360001b61352d565b905092915050565b600081600001805490509050919050565b600080828460000180549050116130aa576040517f08c379a00000000000000000000000000000000000000000000000000000000081526004016130a190614f6c565b60405180910390fd5b60008460000184815481106130bb57fe5b906000526020600020906002020190508060000154816001015492509250509250929050565b60008084600101600085815260200190815260200160002054905060008114158390613143576040517f08c379a000000000000000000000000000000000000000000000000000000000815260040161313a9190614dca565b60405180910390fd5b5084600001600182038154811061315657fe5b9060005260206000209060020201600101549150509392505050565b60006131938473ffffffffffffffffffffffffffffffffffffffff16613646565b6131a057600190506132ce565b606061326763150b7a0260e01b6131b561260e565b8887876040516024016131cb9493929190614d41565b604051602081830303815290604052907bffffffffffffffffffffffffffffffffffffffffffffffffffffffff19166020820180517bffffffffffffffffffffffffffffffffffffffffffffffffffffffff83818316178352505050506040518060600160405280603281526020016154c1603291398773ffffffffffffffffffffffffffffffffffffffff166136599092919063ffffffff16565b905060008180602001905161327f9190810190613f23565b905063150b7a0260e01b7bffffffffffffffffffffffffffffffffffffffffffffffffffffffff1916817bffffffffffffffffffffffffffffffffffffffffffffffffffffffff191614925050505b949350505050565b60006132e28383613671565b61333b578260000182908060018154018082558091505060019003906000526020600020016000909190919091505582600001805490508360010160008481526020019081526020016000208190555060019050613340565b600090505b92915050565b600080836001016000848152602001908152602001600020541415905092915050565b6000808360010160008481526020019081526020016000205490506000811461344557600060018203905060006001866000018054905003905060008660000182815481106133b457fe5b90600052602060002001549050808760000184815481106133d157fe5b906000526020600020018190555060018301876001016000838152602001908152602001600020819055508660000180548061340957fe5b6001900381819060005260206000200160009055905586600101600087815260200190815260200160002060009055600194505050505061344b565b60009150505b92915050565b60008084600101600085815260200190815260200160002054905060008114156134f857846000016040518060400160405280868152602001858152509080600181540180825580915050600190039060005260206000209060020201600090919091909150600082015181600001556020820151816001015550508460000180549050856001016000868152602001908152602001600020819055506001915050613526565b8285600001600183038154811061350b57fe5b90600052602060002090600202016001018190555060009150505b9392505050565b6000808360010160008481526020019081526020016000205490506000811461363a576000600182039050600060018660000180549050039050600086600001828154811061357857fe5b906000526020600020906002020190508087600001848154811061359857fe5b90600052602060002090600202016000820154816000015560018201548160010155905050600183018760010160008360000154815260200190815260200160002081905550866000018054806135eb57fe5b6001900381819060005260206000209060020201600080820160009055600182016000905550509055866001016000878152602001908152602001600020600090556001945050505050613640565b60009150505b92915050565b600080823b905060008111915050919050565b60606136688484600085613694565b90509392505050565b600080836001016000848152602001908152602001600020541415905092915050565b606061369f85613646565b6136de576040517f08c379a00000000000000000000000000000000000000000000000000000000081526004016136d59061508c565b60405180910390fd5b600060608673ffffffffffffffffffffffffffffffffffffffff1685876040516137089190614cd4565b60006040518083038185875af1925050503d8060008114613745576040519150601f19603f3d011682016040523d82523d6000602084013e61374a565b606091505b5091509150811561375f5780925050506137af565b6000815111156137725780518082602001fd5b836040517f08c379a00000000000000000000000000000000000000000000000000000000081526004016137a69190614dca565b60405180910390fd5b949350505050565b60405180608001604052806060815260200160608152602001606081526020016000151581525090565b828054600181600116156101000203166002900490600052602060002090601f016020900481019282601f1061382257805160ff1916838001178555613850565b82800160010185558215613850579182015b8281111561384f578251825591602001919060010190613834565b5b50905061385d91906138d9565b5090565b6040518060400160405280600073ffffffffffffffffffffffffffffffffffffffff168152602001606081525090565b50805460018160011615610100020316600290046000825580601f106138b757506138d6565b601f0160209004906000526020600020908101906138d591906138d9565b5b50565b6138fb91905b808211156138f75760008160009055506001016138df565b5090565b90565b60008135905061390d81615436565b92915050565b600082601f83011261392457600080fd5b813561393761393282615184565b615157565b9150818183526020840193506020810190508360005b8381101561397d57813586016139638882613b60565b84526020840193506020830192505060018101905061394d565b5050505092915050565b600082601f83011261399857600080fd5b81356139ab6139a6826151ac565b615157565b9150818183526020840193506020810190508360005b838110156139f157813586016139d78882613c1c565b8452602084019350602083019250506001810190506139c1565b5050505092915050565b600081359050613a0a8161544d565b92915050565b600081359050613a1f81615464565b92915050565b600081359050613a348161547b565b92915050565b600081519050613a498161547b565b92915050565b600082601f830112613a6057600080fd5b8135613a73613a6e826151d4565b615157565b91508082526020830160208301858383011115613a8f57600080fd5b613a9a8382846153e3565b50505092915050565b600081359050613ab281615492565b92915050565b600082601f830112613ac957600080fd5b8135613adc613ad782615200565b615157565b91508082526020830160208301858383011115613af857600080fd5b613b038382846153e3565b50505092915050565b600082601f830112613b1d57600080fd5b8135613b30613b2b8261522c565b615157565b91508082526020830160208301858383011115613b4c57600080fd5b613b578382846153e3565b50505092915050565b600060808284031215613b7257600080fd5b613b7c6080615157565b9050600082013567ffffffffffffffff811115613b9857600080fd5b613ba484828501613ab8565b600083015250602082013567ffffffffffffffff811115613bc457600080fd5b613bd084828501613ab8565b602083015250604082013567ffffffffffffffff811115613bf057600080fd5b613bfc84828501613ab8565b6040830152506060613c10848285016139fb565b60608301525092915050565b600060a08284031215613c2e57600080fd5b613c3860a0615157565b90506000613c4884828501613a10565b6000830152506020613c5c84828501613a10565b602083015250604082013567ffffffffffffffff811115613c7c57600080fd5b613c8884828501613ab8565b6040830152506060613c9c84828501613aa3565b6060830152506080613cb084828501613cbc565b60808301525092915050565b600081359050613ccb816154a9565b92915050565b600060208284031215613ce357600080fd5b6000613cf1848285016138fe565b91505092915050565b60008060408385031215613d0d57600080fd5b6000613d1b858286016138fe565b9250506020613d2c858286016138fe565b9150509250929050565b600080600060608486031215613d4b57600080fd5b6000613d59868287016138fe565b9350506020613d6a868287016138fe565b9250506040613d7b86828701613cbc565b9150509250925092565b60008060008060808587031215613d9b57600080fd5b6000613da9878288016138fe565b9450506020613dba878288016138fe565b9350506040613dcb87828801613cbc565b925050606085013567ffffffffffffffff811115613de857600080fd5b613df487828801613a4f565b91505092959194509250565b60008060408385031215613e1357600080fd5b6000613e21858286016138fe565b9250506020613e32858286016139fb565b9150509250929050565b60008060408385031215613e4f57600080fd5b6000613e5d858286016138fe565b9250506020613e6e85828601613cbc565b9150509250929050565b600060208284031215613e8a57600080fd5b600082013567ffffffffffffffff811115613ea457600080fd5b613eb084828501613913565b91505092915050565b600060208284031215613ecb57600080fd5b600082013567ffffffffffffffff811115613ee557600080fd5b613ef184828501613987565b91505092915050565b600060208284031215613f0c57600080fd5b6000613f1a84828501613a25565b91505092915050565b600060208284031215613f3557600080fd5b6000613f4384828501613a3a565b91505092915050565b600060208284031215613f5e57600080fd5b600082013567ffffffffffffffff811115613f7857600080fd5b613f8484828501613b0c565b91505092915050565b600060208284031215613f9f57600080fd5b6000613fad84828501613cbc565b91505092915050565b6000613fc28383614c17565b905092915050565b6000613fd68383614c88565b905092915050565b613fe78161535b565b82525050565b613ff681615349565b82525050565b61400581615349565b82525050565b60006140168261528d565b61402081856152de565b93508360208202850161403285615258565b8060005b8581101561406e578484038952815161404f8582613fb6565b945061405a836152c4565b925060208a01995050600181019050614036565b50829750879550505050505092915050565b600061408b82615298565b61409581856152ef565b9350836020820285016140a785615268565b8060005b858110156140e357848403895281516140c48582613fca565b94506140cf836152d1565b925060208a019950506001810190506140ab565b50829750879550505050505092915050565b6140fe8161536d565b82525050565b61410d8161536d565b82525050565b600061411e826152a3565b6141288185615300565b93506141388185602086016153f2565b61414181615425565b840191505092915050565b6000614157826152a3565b6141618185615311565b93506141718185602086016153f2565b80840191505092915050565b6000614188826152b9565b614192818561532d565b93506141a28185602086016153f2565b6141ab81615425565b840191505092915050565b60006141c1826152b9565b6141cb818561533e565b93506141db8185602086016153f2565b80840191505092915050565b60006141f2826152ae565b6141fc818561531c565b935061420c8185602086016153f2565b61421581615425565b840191505092915050565b600061422b826152ae565b614235818561533e565b93506142458185602086016153f2565b80840191505092915050565b60008154600181166000811461426e5760018114614293576142d7565b607f600283041661427f818761533e565b955060ff19831686528086019350506142d7565b600282046142a1818761533e565b95506142ac85615278565b60005b828110156142ce578154818901526001820191506020810190506142af565b82880195505050505b505092915050565b60006142ec60228361532d565b91507f456e756d657261626c655365743a20696e646578206f7574206f6620626f756e60008301527f64730000000000000000000000000000000000000000000000000000000000006020830152604082019050919050565b600061435260328361532d565b91507f4552433732313a207472616e7366657220746f206e6f6e20455243373231526560008301527f63656976657220696d706c656d656e74657200000000000000000000000000006020830152604082019050919050565b60006143b860278361532d565b91507f497373756572207769746820746869732061646472657373206e6f742072656760008301527f69737465726564000000000000000000000000000000000000000000000000006020830152604082019050919050565b600061441e60268361532d565b91507f4f776e61626c653a206e6577206f776e657220697320746865207a65726f206160008301527f64647265737300000000000000000000000000000000000000000000000000006020830152604082019050919050565b6000614484601c8361532d565b91507f4552433732313a20746f6b656e20616c7265616479206d696e746564000000006000830152602082019050919050565b60006144c460298361532d565b91507f4e6f20726f6f74206174747269627574652073706563696669656420696e207460008301527f686520736368656d6500000000000000000000000000000000000000000000006020830152604082019050919050565b600061452a60248361532d565b91507f4552433732313a207472616e7366657220746f20746865207a65726f2061646460008301527f72657373000000000000000000000000000000000000000000000000000000006020830152604082019050919050565b600061459060198361532d565b91507f4552433732313a20617070726f766520746f2063616c6c6572000000000000006000830152602082019050919050565b60006145d0602c8361532d565b91507f4552433732313a206f70657261746f7220717565727920666f72206e6f6e657860008301527f697374656e7420746f6b656e00000000000000000000000000000000000000006020830152604082019050919050565b6000614636602b8361532d565b91507f49737375657220776974682074686973206164647265737320616c726561647960008301527f20726567697374657265640000000000000000000000000000000000000000006020830152604082019050919050565b600061469c60388361532d565b91507f4552433732313a20617070726f76652063616c6c6572206973206e6f74206f7760008301527f6e6572206e6f7220617070726f76656420666f7220616c6c00000000000000006020830152604082019050919050565b6000614702602a8361532d565b91507f4552433732313a2062616c616e636520717565727920666f7220746865207a6560008301527f726f2061646472657373000000000000000000000000000000000000000000006020830152604082019050919050565b600061476860228361532d565b91507f456e756d657261626c654d61703a20696e646578206f7574206f6620626f756e60008301527f64730000000000000000000000000000000000000000000000000000000000006020830152604082019050919050565b60006147ce60208361532d565b91507f4552433732313a206d696e7420746f20746865207a65726f20616464726573736000830152602082019050919050565b600061480e602c8361532d565b91507f4552433732313a20617070726f76656420717565727920666f72206e6f6e657860008301527f697374656e7420746f6b656e00000000000000000000000000000000000000006020830152604082019050919050565b600061487460208361532d565b91507f4f776e61626c653a2063616c6c6572206973206e6f7420746865206f776e65726000830152602082019050919050565b60006148b460298361532d565b91507f4552433732313a207472616e73666572206f6620746f6b656e2074686174206960008301527f73206e6f74206f776e00000000000000000000000000000000000000000000006020830152604082019050919050565b600061491a602f8361532d565b91507f4552433732314d657461646174613a2055524920717565727920666f72206e6f60008301527f6e6578697374656e7420746f6b656e00000000000000000000000000000000006020830152604082019050919050565b600061498060448361532d565b91507f526571756573746564206174747269627574657320646f6573206e6f74206d6160008301527f746368207468652063757272656e7420736368656d65206f662074686520697360208301527f73756572000000000000000000000000000000000000000000000000000000006040830152606082019050919050565b6000614a0c60218361532d565b91507f4552433732313a20617070726f76616c20746f2063757272656e74206f776e6560008301527f72000000000000000000000000000000000000000000000000000000000000006020830152604082019050919050565b6000614a7260318361532d565b91507f4552433732313a207472616e736665722063616c6c6572206973206e6f74206f60008301527f776e6572206e6f7220617070726f7665640000000000000000000000000000006020830152604082019050919050565b6000614ad8601d8361532d565b91507f416464726573733a2063616c6c20746f206e6f6e2d636f6e74726163740000006000830152602082019050919050565b6000614b1860238361532d565b91507f497373756572206469646e277420646566696e6520616e7920736368656d652060008301527f79657400000000000000000000000000000000000000000000000000000000006020830152604082019050919050565b6000614b7e60308361532d565b91507f4552433732314275726e61626c653a2063616c6c6572206973206e6f74206f7760008301527f6e6572206e6f7220617070726f766564000000000000000000000000000000006020830152604082019050919050565b6000614be4601e8361532d565b91507f696e70757420617272617973206d757374206265206e6f7420656d70747900006000830152602082019050919050565b60006080830160008301518482036000860152614c3482826141e7565b91505060208301518482036020860152614c4e82826141e7565b91505060408301518482036040860152614c6882826141e7565b9150506060830151614c7d60608601826140f5565b508091505092915050565b6000604083016000830151614ca06000860182613fed565b5060208301518482036020860152614cb882826141e7565b9150508091505092915050565b614cce816153d9565b82525050565b6000614ce0828461414c565b915081905092915050565b6000614cf78284614220565b915081905092915050565b6000614d0e8285614251565b9150614d1a82846141b6565b91508190509392505050565b6000602082019050614d3b6000830184613ffc565b92915050565b6000608082019050614d566000830187613fde565b614d636020830186613ffc565b614d706040830185614cc5565b8181036060830152614d828184614113565b905095945050505050565b60006020820190508181036000830152614da78184614080565b905092915050565b6000602082019050614dc46000830184614104565b92915050565b60006020820190508181036000830152614de4818461417d565b905092915050565b60006020820190508181036000830152614e05816142df565b9050919050565b60006020820190508181036000830152614e2581614345565b9050919050565b60006020820190508181036000830152614e45816143ab565b9050919050565b60006020820190508181036000830152614e6581614411565b9050919050565b60006020820190508181036000830152614e8581614477565b9050919050565b60006020820190508181036000830152614ea5816144b7565b9050919050565b60006020820190508181036000830152614ec58161451d565b9050919050565b60006020820190508181036000830152614ee581614583565b9050919050565b60006020820190508181036000830152614f05816145c3565b9050919050565b60006020820190508181036000830152614f2581614629565b9050919050565b60006020820190508181036000830152614f458161468f565b9050919050565b60006020820190508181036000830152614f65816146f5565b9050919050565b60006020820190508181036000830152614f858161475b565b9050919050565b60006020820190508181036000830152614fa5816147c1565b9050919050565b60006020820190508181036000830152614fc581614801565b9050919050565b60006020820190508181036000830152614fe581614867565b9050919050565b60006020820190508181036000830152615005816148a7565b9050919050565b600060208201905081810360008301526150258161490d565b9050919050565b6000602082019050818103600083015261504581614973565b9050919050565b60006020820190508181036000830152615065816149ff565b9050919050565b6000602082019050818103600083015261508581614a65565b9050919050565b600060208201905081810360008301526150a581614acb565b9050919050565b600060208201905081810360008301526150c581614b0b565b9050919050565b600060208201905081810360008301526150e581614b71565b9050919050565b6000602082019050818103600083015261510581614bd7565b9050919050565b60006020820190506151216000830184614cc5565b92915050565b600060408201905061513c6000830185614cc5565b818103602083015261514e818461400b565b90509392505050565b6000604051905081810181811067ffffffffffffffff8211171561517a57600080fd5b8060405250919050565b600067ffffffffffffffff82111561519b57600080fd5b602082029050602081019050919050565b600067ffffffffffffffff8211156151c357600080fd5b602082029050602081019050919050565b600067ffffffffffffffff8211156151eb57600080fd5b601f19601f8301169050602081019050919050565b600067ffffffffffffffff82111561521757600080fd5b601f19601f8301169050602081019050919050565b600067ffffffffffffffff82111561524357600080fd5b601f19601f8301169050602081019050919050565b6000819050602082019050919050565b6000819050602082019050919050565b60008190508160005260206000209050919050565b600081519050919050565b600081519050919050565b600081519050919050565b600081519050919050565b600081519050919050565b6000602082019050919050565b6000602082019050919050565b600082825260208201905092915050565b600082825260208201905092915050565b600082825260208201905092915050565b600081905092915050565b600082825260208201905092915050565b600082825260208201905092915050565b600081905092915050565b6000615354826153b9565b9050919050565b6000615366826153b9565b9050919050565b60008115159050919050565b6000819050919050565b60007fffffffff0000000000000000000000000000000000000000000000000000000082169050919050565b6000819050919050565b600073ffffffffffffffffffffffffffffffffffffffff82169050919050565b6000819050919050565b82818337600083830152505050565b60005b838110156154105780820151818401526020810190506153f5565b8381111561541f576000848401525b50505050565b6000601f19601f8301169050919050565b61543f81615349565b811461544a57600080fd5b50565b6154568161536d565b811461546157600080fd5b50565b61546d81615379565b811461547857600080fd5b50565b61548481615383565b811461548f57600080fd5b50565b61549b816153af565b81146154a657600080fd5b50565b6154b2816153d9565b81146154bd57600080fd5b5056fe4552433732313a207472616e7366657220746f206e6f6e20455243373231526563656976657220696d706c656d656e7465724552433732313a206f776e657220717565727920666f72206e6f6e6578697374656e7420746f6b656ea264697066735822122039398981e7543d9d7011f6604f2ac093d35073eb1eaebf089ad7ad7b10d96e3f64736f6c63430006020033",
  "source": "// SPDX-License-Identifier: MIT\r\npragma solidity ^0.6.2;\r\npragma experimental ABIEncoderV2;\r\n\r\nimport '@openzeppelin/contracts/token/ERC721/ERC721.sol';\r\nimport '@openzeppelin/contracts/token/ERC721/ERC721Burnable.sol';\r\nimport \"@openzeppelin/contracts/access/Ownable.sol\";\r\nimport \"@openzeppelin/contracts/utils/Counters.sol\";\r\n\r\ncontract O10Identity is ERC721, ERC721Burnable, Ownable {\r\n    using Counters for Counters.Counter;\r\n    using EnumerableSet for EnumerableSet.AddressSet;\r\n\r\n    struct SchemeItem {\r\n        string SchemeName;\r\n    }\r\n    \r\n    struct AttributeDefinition {\r\n        string AttributeName;\r\n        string AttributeScheme;\r\n        string Alias;\r\n        bool IsRoot;\r\n    }\r\n\r\n    struct AttributeRecord {\r\n        bytes32 BindingCommitment;\r\n        bytes32 AssetCommitment;\r\n        string AttributeName;\r\n        int Version;\r\n        uint256 AttributeId;\r\n    }\r\n\r\n    struct IssuerDetails {\r\n        address Address;\r\n        string Alias;\r\n    }\r\n\r\n    struct Issuer {\r\n        IssuerDetails Details;\r\n        bool IsRegistered;\r\n    \r\n        Counters.Counter DefinitionVersion;\r\n        Counters.Counter AttributeId;\r\n        \r\n        // version => attribute definitions\r\n        mapping(uint256 => AttributeDefinition[]) Definitions;\r\n        \r\n        AttributeRecord[] Attributes;\r\n\r\n        mapping(uint256 => AttributeRecord) TokenIdToAttribute;\r\n        mapping(bytes32 => AttributeRecord) AssetCommitmentToAttribute; // For validating that is not burned\r\n        mapping(bytes32 => AttributeRecord) BindingCommitmentToAttribute; // For burning\r\n    }\r\n\r\n    constructor(string memory name, string memory symbol) ERC721(name, symbol) public {}\r\n\r\n    SchemeItem[] _schemeItems;\r\n\r\n    mapping(address => Issuer) _issuers;\r\n    EnumerableSet.AddressSet private _issuerAddresses;\r\n\r\n    Counters.Counter private _tokenId;\r\n\r\n    function register(string memory aliasName) public {\r\n        address issuerAddr = msg.sender;\r\n        require(!_issuers[issuerAddr].IsRegistered, \"Issuer with this address already registered\");\r\n        Issuer storage issuer = _issuers[issuerAddr];\r\n        issuer.IsRegistered = true;\r\n        issuer.Details = IssuerDetails({Address: issuerAddr, Alias: aliasName});\r\n\r\n        _issuerAddresses.add(issuerAddr);\r\n    }\r\n\r\n    function getAllIssuers() view public returns(IssuerDetails[] memory) {\r\n        IssuerDetails[] memory issuerDetails = new IssuerDetails[](_issuerAddresses.length());\r\n\r\n        for (uint256 i = 0; i < _issuerAddresses.length(); i++) {\r\n            address addr = _issuerAddresses.at(i);\r\n            issuerDetails[i] = _issuers[addr].Details;\r\n        }\r\n\r\n        return issuerDetails;\r\n    }\r\n\r\n    function setScheme(AttributeDefinition[] memory definitions) public {\r\n        address issuerAddr = msg.sender;\r\n        require(_issuers[issuerAddr].IsRegistered, \"Issuer with this address not registered\");\r\n        require(definitions.length > 0, \"input arrays must be not empty\");\r\n\r\n        bool rootFound = false;\r\n        for (uint256 i = 0; i < definitions.length; i++) {\r\n            if (definitions[i].IsRoot) {\r\n                rootFound = true;\r\n            }\r\n        }\r\n\r\n        require(rootFound, \"No root attribute specified in the scheme\");\r\n\r\n        _issuers[issuerAddr].DefinitionVersion.increment();\r\n        for (uint256 i = 0; i < definitions.length; i++) {\r\n            _issuers[issuerAddr].Definitions[_issuers[issuerAddr].DefinitionVersion.current()].push(definitions[i]);\r\n        }\r\n    }\r\n\r\n    // function setScheme(address issuerAddr, bool[] memory isRoot, string[] memory schemeNames, string[] memory attributeNames, string[] memory aliases) public payable {\r\n    //     require(!_issuers[issuerAddr].IsRegistered, \"Issuer with this address not registered\");\r\n    //     require(isRoot.length > 0 && schemeNames.length > 0 && attributeNames.length > 0 && aliases.length > 0, \"input arrays must be not empty\");\r\n    //     require(isRoot.length == schemeNames.length && isRoot.length == attributeNames.length && isRoot.length == aliases.length, \"input arrays must be of the same size\");\r\n\r\n    //     bool rootFound = false;\r\n    //     for (uint256 i = 0; i < isRoot.length; i++) {\r\n    //         if(isRoot[i]) {\r\n    //             rootFound = true;\r\n    //         }\r\n    //     }\r\n\r\n    //     require(rootFound, \"No root attribute specified in the scheme\");\r\n\r\n    //     _issuers[issuerAddr].DefinitionVersion.increment();\r\n    //     for (uint256 i = 0; i < isRoot.length; i++) {\r\n    //         _issuers[issuerAddr].Definitions[_issuers[issuerAddr].DefinitionVersion.current()].push(AttributeDefinition({IsRoot: isRoot[i], AttributeScheme: schemeNames[i], AttributeName: attributeNames[i], Alias: aliases[i]}));\r\n    //     }\r\n    // }\r\n\r\n    function getScheme(address issuerAddr) view public returns(uint256, AttributeDefinition[] memory) {\r\n        require(!_issuers[issuerAddr].IsRegistered, \"Issuer with this address not registered\");\r\n        require(_issuers[issuerAddr].DefinitionVersion.current() > 0, \"Issuer didn't define any scheme yet\");\r\n\r\n        uint256 idx = _issuers[issuerAddr].DefinitionVersion.current();\r\n        AttributeDefinition[] memory definitions = new AttributeDefinition[](_issuers[issuerAddr].Definitions[idx].length);\r\n\r\n        for (uint256 i = 0; i < definitions.length; i++) {\r\n            definitions[i] = _issuers[issuerAddr].Definitions[idx][i];\r\n        }\r\n\r\n        return (idx, definitions);\r\n    }\r\n\r\n    // function getScheme(address issuerAddr) public payable returns(uint256, bool[] memory, string[] memory, string[] memory, string[] memory) {\r\n    //     require(!_issuers[issuerAddr].IsRegistered, \"Issuer with this address not registered\");\r\n    //     require(_issuers[issuerAddr].DefinitionVersion.current() > 0, \"Issuer didn't define any scheme yet\");\r\n\r\n    //     uint256 idx = _issuers[issuerAddr].DefinitionVersion.current();\r\n    //     AttributeDefinition[] storage definitions = _issuers[issuerAddr].Definitions[idx];\r\n\r\n    //     bool[] memory isRoot = new bool[](definitions.length);\r\n    //     string[] memory schemeNames = new string[](definitions.length);\r\n    //     string[] memory attributeNames = new string[](definitions.length);\r\n    //     string[] memory attributeAliases = new string[](definitions.length);\r\n\r\n    //     for (uint256 i = 0; i < definitions.length; i++) {\r\n    //         isRoot[i] = definitions[i].IsRoot;\r\n    //         schemeNames[i] = definitions[i].AttributeScheme;\r\n    //         attributeNames[i] = definitions[i].AttributeName;\r\n    //         attributeAliases[i] = definitions[i].Alias;\r\n    //     }\r\n\r\n    //     return (idx, isRoot, schemeNames, attributeNames, attributeAliases);\r\n    // }\r\n\r\n    function issueAttributes(AttributeRecord[] memory attributeRecords) public {\r\n        address issuerAddr = msg.sender;\r\n        require(!_issuers[issuerAddr].IsRegistered, \"Issuer with this address not registered\");\r\n        require(_issuers[issuerAddr].DefinitionVersion.current() > 0, \"Issuer didn't define any scheme yet\");\r\n\r\n        uint256 idx = _issuers[issuerAddr].DefinitionVersion.current();\r\n        AttributeDefinition[] memory definitions = new AttributeDefinition[](_issuers[issuerAddr].Definitions[idx].length);\r\n\r\n        for (uint256 i = 0; i < definitions.length; i++) {\r\n            bool found = false;\r\n\r\n            for (uint256 j = 0; j < attributeRecords.length; j++) {\r\n                if(keccak256(abi.encodePacked(attributeRecords[j].AttributeName)) == keccak256(abi.encodePacked(definitions[i].AttributeName))) {\r\n                    found = true;\r\n                }\r\n            }\r\n\r\n            require(found, \"Requested attributes does not match the current scheme of the issuer\");\r\n        }\r\n\r\n        for (uint256 i = 0; i < attributeRecords.length; i++) {\r\n            _issuers[issuerAddr].AttributeId.increment();\r\n\r\n            if(_issuers[issuerAddr].BindingCommitmentToAttribute[attributeRecords[i].BindingCommitment].AttributeId > 0) {\r\n                _burn(_issuers[issuerAddr].BindingCommitmentToAttribute[attributeRecords[i].BindingCommitment].AttributeId);\r\n            }\r\n\r\n            uint256 attributeId = _issuers[issuerAddr].AttributeId.current();\r\n\r\n            attributeRecords[i].AttributeId = attributeId;\r\n            _issuers[issuerAddr].Attributes.push(attributeRecords[i]);\r\n            _issuers[issuerAddr].TokenIdToAttribute[attributeId] = attributeRecords[i];\r\n            _issuers[issuerAddr].AssetCommitmentToAttribute[attributeRecords[i].AssetCommitment] = attributeRecords[i];\r\n            _issuers[issuerAddr].BindingCommitmentToAttribute[attributeRecords[i].BindingCommitment] = attributeRecords[i];\r\n\r\n            _mint(issuerAddr, attributeId);\r\n        }\r\n\r\n    }\r\n}",
  "sourcePath": "C:/Dev/O10/Integrations/Rsk/Contracts/O10Idp/contracts/O10Identity.sol",
  "compiler": {
    "name": "solc",
    "version": "0.6.2+commit.bacdbe57.Emscripten.clang"
  },
  "schemaVersion": "3.3.0",
  "updatedAt": "2020-10-17T14:14:31.389Z",
  "networkType": "ethereum",
  "devdoc": {
    "methods": {
      "approve(address,uint256)": {
        "details": "See {IERC721-approve}."
      },
      "balanceOf(address)": {
        "details": "See {IERC721-balanceOf}."
      },
      "baseURI()": {
        "details": "Returns the base URI set via {_setBaseURI}. This will be automatically added as a prefix in {tokenURI} to each token's URI, or to the token ID if no specific URI is set for that token ID."
      },
      "burn(uint256)": {
        "details": "Burns `tokenId`. See {ERC721-_burn}.     * Requirements:     * - The caller must own `tokenId` or be an approved operator."
      },
      "getApproved(uint256)": {
        "details": "See {IERC721-getApproved}."
      },
      "isApprovedForAll(address,address)": {
        "details": "See {IERC721-isApprovedForAll}."
      },
      "name()": {
        "details": "See {IERC721Metadata-name}."
      },
      "owner()": {
        "details": "Returns the address of the current owner."
      },
      "ownerOf(uint256)": {
        "details": "See {IERC721-ownerOf}."
      },
      "renounceOwnership()": {
        "details": "Leaves the contract without owner. It will not be possible to call `onlyOwner` functions anymore. Can only be called by the current owner.     * NOTE: Renouncing ownership will leave the contract without an owner, thereby removing any functionality that is only available to the owner."
      },
      "safeTransferFrom(address,address,uint256)": {
        "details": "See {IERC721-safeTransferFrom}."
      },
      "safeTransferFrom(address,address,uint256,bytes)": {
        "details": "See {IERC721-safeTransferFrom}."
      },
      "setApprovalForAll(address,bool)": {
        "details": "See {IERC721-setApprovalForAll}."
      },
      "supportsInterface(bytes4)": {
        "details": "See {IERC165-supportsInterface}.     * Time complexity O(1), guaranteed to always use less than 30 000 gas."
      },
      "symbol()": {
        "details": "See {IERC721Metadata-symbol}."
      },
      "tokenByIndex(uint256)": {
        "details": "See {IERC721Enumerable-tokenByIndex}."
      },
      "tokenOfOwnerByIndex(address,uint256)": {
        "details": "See {IERC721Enumerable-tokenOfOwnerByIndex}."
      },
      "tokenURI(uint256)": {
        "details": "See {IERC721Metadata-tokenURI}."
      },
      "totalSupply()": {
        "details": "See {IERC721Enumerable-totalSupply}."
      },
      "transferFrom(address,address,uint256)": {
        "details": "See {IERC721-transferFrom}."
      },
      "transferOwnership(address)": {
        "details": "Transfers ownership of the contract to a new account (`newOwner`). Can only be called by the current owner."
      }
    }
  },
  "userdoc": {
    "methods": {}
  }
}