{
    "contractName": "O10Identity",
    "abi": [
        {
            "inputs": [
                {
                    "internalType": "string",
                    "name": "name",
                    "type": "string"
                },
                {
                    "internalType": "string",
                    "name": "symbol",
                    "type": "string"
                }
            ],
            "stateMutability": "nonpayable",
            "type": "constructor"
        },
        {
            "anonymous": false,
            "inputs": [
                {
                    "indexed": true,
                    "internalType": "address",
                    "name": "owner",
                    "type": "address"
                },
                {
                    "indexed": true,
                    "internalType": "address",
                    "name": "approved",
                    "type": "address"
                },
                {
                    "indexed": true,
                    "internalType": "uint256",
                    "name": "tokenId",
                    "type": "uint256"
                }
            ],
            "name": "Approval",
            "type": "event"
        },
        {
            "anonymous": false,
            "inputs": [
                {
                    "indexed": true,
                    "internalType": "address",
                    "name": "owner",
                    "type": "address"
                },
                {
                    "indexed": true,
                    "internalType": "address",
                    "name": "operator",
                    "type": "address"
                },
                {
                    "indexed": false,
                    "internalType": "bool",
                    "name": "approved",
                    "type": "bool"
                }
            ],
            "name": "ApprovalForAll",
            "type": "event"
        },
        {
            "anonymous": false,
            "inputs": [
                {
                    "indexed": true,
                    "internalType": "address",
                    "name": "previousOwner",
                    "type": "address"
                },
                {
                    "indexed": true,
                    "internalType": "address",
                    "name": "newOwner",
                    "type": "address"
                }
            ],
            "name": "OwnershipTransferred",
            "type": "event"
        },
        {
            "anonymous": false,
            "inputs": [
                {
                    "indexed": true,
                    "internalType": "address",
                    "name": "from",
                    "type": "address"
                },
                {
                    "indexed": true,
                    "internalType": "address",
                    "name": "to",
                    "type": "address"
                },
                {
                    "indexed": true,
                    "internalType": "uint256",
                    "name": "tokenId",
                    "type": "uint256"
                }
            ],
            "name": "Transfer",
            "type": "event"
        },
        {
            "inputs": [
                {
                    "internalType": "address",
                    "name": "to",
                    "type": "address"
                },
                {
                    "internalType": "uint256",
                    "name": "tokenId",
                    "type": "uint256"
                }
            ],
            "name": "approve",
            "outputs": [],
            "stateMutability": "nonpayable",
            "type": "function"
        },
        {
            "inputs": [
                {
                    "internalType": "address",
                    "name": "owner",
                    "type": "address"
                }
            ],
            "name": "balanceOf",
            "outputs": [
                {
                    "internalType": "uint256",
                    "name": "",
                    "type": "uint256"
                }
            ],
            "stateMutability": "view",
            "type": "function"
        },
        {
            "inputs": [],
            "name": "baseURI",
            "outputs": [
                {
                    "internalType": "string",
                    "name": "",
                    "type": "string"
                }
            ],
            "stateMutability": "view",
            "type": "function"
        },
        {
            "inputs": [
                {
                    "internalType": "uint256",
                    "name": "tokenId",
                    "type": "uint256"
                }
            ],
            "name": "burn",
            "outputs": [],
            "stateMutability": "nonpayable",
            "type": "function"
        },
        {
            "inputs": [],
            "name": "getAllIssuers",
            "outputs": [
                {
                    "components": [
                        {
                            "internalType": "address",
                            "name": "Address",
                            "type": "address"
                        },
                        {
                            "internalType": "string",
                            "name": "Alias",
                            "type": "string"
                        }
                    ],
                    "internalType": "struct O10Identity.IssuerDetails[]",
                    "name": "",
                    "type": "tuple[]"
                }
            ],
            "stateMutability": "view",
            "type": "function"
        },
        {
            "inputs": [
                {
                    "internalType": "uint256",
                    "name": "tokenId",
                    "type": "uint256"
                }
            ],
            "name": "getApproved",
            "outputs": [
                {
                    "internalType": "address",
                    "name": "",
                    "type": "address"
                }
            ],
            "stateMutability": "view",
            "type": "function"
        },
        {
            "inputs": [
                {
                    "internalType": "address",
                    "name": "issuerAddr",
                    "type": "address"
                }
            ],
            "name": "getScheme",
            "outputs": [
                {
                    "internalType": "uint256",
                    "name": "",
                    "type": "uint256"
                },
                {
                    "components": [
                        {
                            "internalType": "string",
                            "name": "AttributeName",
                            "type": "string"
                        },
                        {
                            "internalType": "string",
                            "name": "AttributeScheme",
                            "type": "string"
                        },
                        {
                            "internalType": "string",
                            "name": "Alias",
                            "type": "string"
                        },
                        {
                            "internalType": "bool",
                            "name": "IsRoot",
                            "type": "bool"
                        }
                    ],
                    "internalType": "struct O10Identity.AttributeDefinition[]",
                    "name": "",
                    "type": "tuple[]"
                }
            ],
            "stateMutability": "view",
            "type": "function"
        },
        {
            "inputs": [
                {
                    "internalType": "address",
                    "name": "owner",
                    "type": "address"
                },
                {
                    "internalType": "address",
                    "name": "operator",
                    "type": "address"
                }
            ],
            "name": "isApprovedForAll",
            "outputs": [
                {
                    "internalType": "bool",
                    "name": "",
                    "type": "bool"
                }
            ],
            "stateMutability": "view",
            "type": "function"
        },
        {
            "inputs": [
                {
                    "components": [
                        {
                            "internalType": "bytes32",
                            "name": "BindingCommitment",
                            "type": "bytes32"
                        },
                        {
                            "internalType": "bytes32",
                            "name": "AssetCommitment",
                            "type": "bytes32"
                        },
                        {
                            "internalType": "string",
                            "name": "AttributeName",
                            "type": "string"
                        },
                        {
                            "internalType": "int256",
                            "name": "Version",
                            "type": "int256"
                        },
                        {
                            "internalType": "uint256",
                            "name": "AttributeId",
                            "type": "uint256"
                        }
                    ],
                    "internalType": "struct O10Identity.AttributeRecord[]",
                    "name": "attributeRecords",
                    "type": "tuple[]"
                }
            ],
            "name": "issueAttributes",
            "outputs": [],
            "stateMutability": "nonpayable",
            "type": "function"
        },
        {
            "inputs": [],
            "name": "name",
            "outputs": [
                {
                    "internalType": "string",
                    "name": "",
                    "type": "string"
                }
            ],
            "stateMutability": "view",
            "type": "function"
        },
        {
            "inputs": [],
            "name": "owner",
            "outputs": [
                {
                    "internalType": "address",
                    "name": "",
                    "type": "address"
                }
            ],
            "stateMutability": "view",
            "type": "function"
        },
        {
            "inputs": [
                {
                    "internalType": "uint256",
                    "name": "tokenId",
                    "type": "uint256"
                }
            ],
            "name": "ownerOf",
            "outputs": [
                {
                    "internalType": "address",
                    "name": "",
                    "type": "address"
                }
            ],
            "stateMutability": "view",
            "type": "function"
        },
        {
            "inputs": [
                {
                    "internalType": "string",
                    "name": "aliasName",
                    "type": "string"
                }
            ],
            "name": "register",
            "outputs": [],
            "stateMutability": "nonpayable",
            "type": "function"
        },
        {
            "inputs": [],
            "name": "renounceOwnership",
            "outputs": [],
            "stateMutability": "nonpayable",
            "type": "function"
        },
        {
            "inputs": [
                {
                    "internalType": "address",
                    "name": "from",
                    "type": "address"
                },
                {
                    "internalType": "address",
                    "name": "to",
                    "type": "address"
                },
                {
                    "internalType": "uint256",
                    "name": "tokenId",
                    "type": "uint256"
                }
            ],
            "name": "safeTransferFrom",
            "outputs": [],
            "stateMutability": "nonpayable",
            "type": "function"
        },
        {
            "inputs": [
                {
                    "internalType": "address",
                    "name": "from",
                    "type": "address"
                },
                {
                    "internalType": "address",
                    "name": "to",
                    "type": "address"
                },
                {
                    "internalType": "uint256",
                    "name": "tokenId",
                    "type": "uint256"
                },
                {
                    "internalType": "bytes",
                    "name": "_data",
                    "type": "bytes"
                }
            ],
            "name": "safeTransferFrom",
            "outputs": [],
            "stateMutability": "nonpayable",
            "type": "function"
        },
        {
            "inputs": [
                {
                    "internalType": "address",
                    "name": "operator",
                    "type": "address"
                },
                {
                    "internalType": "bool",
                    "name": "approved",
                    "type": "bool"
                }
            ],
            "name": "setApprovalForAll",
            "outputs": [],
            "stateMutability": "nonpayable",
            "type": "function"
        },
        {
            "inputs": [
                {
                    "components": [
                        {
                            "internalType": "string",
                            "name": "AttributeName",
                            "type": "string"
                        },
                        {
                            "internalType": "string",
                            "name": "AttributeScheme",
                            "type": "string"
                        },
                        {
                            "internalType": "string",
                            "name": "Alias",
                            "type": "string"
                        },
                        {
                            "internalType": "bool",
                            "name": "IsRoot",
                            "type": "bool"
                        }
                    ],
                    "internalType": "struct O10Identity.AttributeDefinition[]",
                    "name": "definitions",
                    "type": "tuple[]"
                }
            ],
            "name": "setScheme",
            "outputs": [],
            "stateMutability": "nonpayable",
            "type": "function"
        },
        {
            "inputs": [
                {
                    "internalType": "bytes4",
                    "name": "interfaceId",
                    "type": "bytes4"
                }
            ],
            "name": "supportsInterface",
            "outputs": [
                {
                    "internalType": "bool",
                    "name": "",
                    "type": "bool"
                }
            ],
            "stateMutability": "view",
            "type": "function"
        },
        {
            "inputs": [],
            "name": "symbol",
            "outputs": [
                {
                    "internalType": "string",
                    "name": "",
                    "type": "string"
                }
            ],
            "stateMutability": "view",
            "type": "function"
        },
        {
            "inputs": [
                {
                    "internalType": "uint256",
                    "name": "index",
                    "type": "uint256"
                }
            ],
            "name": "tokenByIndex",
            "outputs": [
                {
                    "internalType": "uint256",
                    "name": "",
                    "type": "uint256"
                }
            ],
            "stateMutability": "view",
            "type": "function"
        },
        {
            "inputs": [
                {
                    "internalType": "address",
                    "name": "owner",
                    "type": "address"
                },
                {
                    "internalType": "uint256",
                    "name": "index",
                    "type": "uint256"
                }
            ],
            "name": "tokenOfOwnerByIndex",
            "outputs": [
                {
                    "internalType": "uint256",
                    "name": "",
                    "type": "uint256"
                }
            ],
            "stateMutability": "view",
            "type": "function"
        },
        {
            "inputs": [
                {
                    "internalType": "uint256",
                    "name": "tokenId",
                    "type": "uint256"
                }
            ],
            "name": "tokenURI",
            "outputs": [
                {
                    "internalType": "string",
                    "name": "",
                    "type": "string"
                }
            ],
            "stateMutability": "view",
            "type": "function"
        },
        {
            "inputs": [],
            "name": "totalSupply",
            "outputs": [
                {
                    "internalType": "uint256",
                    "name": "",
                    "type": "uint256"
                }
            ],
            "stateMutability": "view",
            "type": "function"
        },
        {
            "inputs": [
                {
                    "internalType": "address",
                    "name": "from",
                    "type": "address"
                },
                {
                    "internalType": "address",
                    "name": "to",
                    "type": "address"
                },
                {
                    "internalType": "uint256",
                    "name": "tokenId",
                    "type": "uint256"
                }
            ],
            "name": "transferFrom",
            "outputs": [],
            "stateMutability": "nonpayable",
            "type": "function"
        },
        {
            "inputs": [
                {
                    "internalType": "address",
                    "name": "newOwner",
                    "type": "address"
                }
            ],
            "name": "transferOwnership",
            "outputs": [],
            "stateMutability": "nonpayable",
            "type": "function"
        }
    ],
    "bytecode": "60806040523480156200001157600080fd5b5060405162003619380380620036198339810160408190526200003491620002e5565b8181620000516301ffc9a760e01b6001600160e01b036200013c16565b8151620000669060069060208501906200019c565b5080516200007c9060079060208401906200019c565b50620000986380ac58cd60e01b6001600160e01b036200013c16565b620000b3635b5e139f60e01b6001600160e01b036200013c16565b620000ce63780e9d6360e01b6001600160e01b036200013c16565b5060009050620000e66001600160e01b036200019716565b600a80546001600160a01b0319166001600160a01b038316908117909155604051919250906000907f8be0079c531659141344cd1fd0a4f28419497f9722a3daafe3b4186f6b6457e0908290a350505062000383565b6001600160e01b03198082161415620001725760405162461bcd60e51b815260040162000169906200034c565b60405180910390fd5b6001600160e01b0319166000908152602081905260409020805460ff19166001179055565b335b90565b828054600181600116156101000203166002900490600052602060002090601f016020900481019282601f10620001df57805160ff19168380011785556200020f565b828001600101855582156200020f579182015b828111156200020f578251825591602001919060010190620001f2565b506200021d92915062000221565b5090565b6200019991905b808211156200021d576000815560010162000228565b600082601f8301126200024f578081fd5b81516001600160401b038082111562000266578283fd5b6040516020601f8401601f191682018101838111838210171562000288578586fd5b80604052508194508382528681858801011115620002a557600080fd5b600092505b83831015620002c95785830181015182840182015291820191620002aa565b83831115620002db5760008185840101525b5050505092915050565b60008060408385031215620002f8578182fd5b82516001600160401b03808211156200030f578384fd5b6200031d868387016200023e565b9350602085015191508082111562000333578283fd5b5062000342858286016200023e565b9150509250929050565b6020808252601c908201527f4552433136353a20696e76616c696420696e7465726661636520696400000000604082015260600190565b61328680620003936000396000f3fe608060405234801561001057600080fd5b506004361061018e5760003560e01c80636352211e116100de578063a22cb46511610097578063e985e9c511610071578063e985e9c514610342578063e9c88cf714610355578063f2c298be14610368578063f2fde38b1461037b5761018e565b8063a22cb46514610309578063b88d4fde1461031c578063c87b56dd1461032f5761018e565b80636352211e146102c35780636c0360eb146102d657806370a08231146102de578063715018a6146102f15780638da5cb5b146102f957806395d89b41146103015761018e565b80632f745c591161014b57806342842e0e1161012557806342842e0e1461027557806342966c68146102885780634c32c35c1461029b5780634f6ccce7146102b05761018e565b80632f745c591461022e57806335009059146102415780633730ab40146102545761018e565b806301ffc9a71461019357806306fdde03146101bc578063081812fc146101d1578063095ea7b3146101f157806318160ddd1461020657806323b872dd1461021b575b600080fd5b6101a66101a1366004612770565b61038e565b6040516101b3919061298f565b60405180910390f35b6101c46103b1565b6040516101b3919061299a565b6101e46101df3660046127db565b610448565b6040516101b391906128c2565b6102046101ff36600461254b565b610494565b005b61020e61052c565b6040516101b39190613094565b610204610229366004612478565b61053d565b61020e61023c36600461254b565b610575565b61020461024f366004612697565b6105a6565b610267610262366004612429565b610b28565b6040516101b392919061309d565b610204610283366004612478565b610e8f565b6102046102963660046127db565b610eaa565b6102a3610edd565b6040516101b39190612913565b61020e6102be3660046127db565b611039565b6101e46102d13660046127db565b611055565b6101c4611083565b61020e6102ec366004612429565b6110e4565b61020461112d565b6101e46111ac565b6101c46111bb565b610204610317366004612520565b61121c565b61020461032a3660046124b8565b6112ea565b6101c461033d3660046127db565b611329565b6101a6610350366004612444565b611473565b610204610363366004612575565b6114a1565b6102046103763660046127a8565b611650565b610204610389366004612429565b611700565b6001600160e01b0319811660009081526020819052604090205460ff165b919050565b60068054604080516020601f600260001961010060018816150201909516949094049384018190048102820181019092528281526060939092909183018282801561043d5780601f106104125761010080835404028352916020019161043d565b820191906000526020600020905b81548152906001019060200180831161042057829003601f168201915b505050505090505b90565b6000610453826117b7565b6104785760405162461bcd60e51b815260040161046f90612d7e565b60405180910390fd5b506000908152600460205260409020546001600160a01b031690565b600061049f82611055565b9050806001600160a01b0316836001600160a01b031614156104d35760405162461bcd60e51b815260040161046f90612f01565b806001600160a01b03166104e56117ca565b6001600160a01b031614806105015750610501816103506117ca565b61051d5760405162461bcd60e51b815260040161046f90612c60565b61052783836117ce565b505050565b6000610538600261183c565b905090565b61054e6105486117ca565b82611847565b61056a5760405162461bcd60e51b815260040161046f90612f42565b6105278383836118cc565b6001600160a01b038216600090815260016020526040812061059d908363ffffffff6119ec16565b90505b92915050565b336000818152600c602052604090206002015460ff16156105d95760405162461bcd60e51b815260040161046f90612a41565b6001600160a01b0381166000908152600c602052604081206105fd906003016119f8565b1161061a5760405162461bcd60e51b815260040161046f90612fca565b6001600160a01b0381166000908152600c6020526040812061063e906003016119f8565b6001600160a01b0383166000908152600c6020908152604080832084845260050182529182902054825181815281830281019092019092529192506060919080156106a357816020015b61069061227f565b8152602001906001900390816106885790505b50905060005b8151811015610775576000805b865181101561074e578383815181106106cb57fe5b6020026020010151600001516040516020016106e79190612825565b6040516020818303038152906040528051906020012087828151811061070957fe5b6020026020010151604001516040516020016107259190612825565b60405160208183030381529060405280519060200120141561074657600191505b6001016106b6565b508061076c5760405162461bcd60e51b815260040161046f90612e97565b506001016106a9565b5060005b8451811015610b21576001600160a01b0384166000908152600c602052604090206107a6906004016119fc565b6000600c6000866001600160a01b03166001600160a01b0316815260200190815260200160002060090160008784815181106107de57fe5b602002602001015160000151815260200190815260200160002060040154111561085e5761085e600c6000866001600160a01b03166001600160a01b03168152602001908152602001600020600901600087848151811061083b57fe5b602002602001015160000151815260200190815260200160002060040154611a05565b6001600160a01b0384166000908152600c60205260408120610882906004016119f8565b90508086838151811061089157fe5b60200260200101516080018181525050600c6000866001600160a01b03166001600160a01b031681526020019081526020016000206006018683815181106108d557fe5b6020908102919091018101518254600181810185556000948552938390208251600590920201908155818301519381019390935560408101518051919392610925926002850192909101906122a9565b506060820151816003015560808201518160040155505085828151811061094857fe5b6020908102919091018101516001600160a01b0387166000908152600c83526040808220858352600701845290819020825181558284015160018201559082015180519293919261099f92600285019201906122a9565b5060608201518160030155608082015181600401559050508582815181106109c357fe5b6020026020010151600c6000876001600160a01b03166001600160a01b031681526020019081526020016000206008016000888581518110610a0157fe5b602002602001015160200151815260200190815260200160002060008201518160000155602082015181600101556040820151816002019080519060200190610a4b9291906122a9565b506060820151816003015560808201518160040155905050858281518110610a6f57fe5b6020026020010151600c6000876001600160a01b03166001600160a01b031681526020019081526020016000206009016000888581518110610aad57fe5b602002602001015160000151815260200190815260200160002060008201518160000155602082015181600101556040820151816002019080519060200190610af79291906122a9565b5060608201516003820155608090910151600490910155610b188582611ade565b50600101610779565b5050505050565b6001600160a01b0381166000908152600c602052604081206002015460609060ff1615610b675760405162461bcd60e51b815260040161046f90612a41565b6001600160a01b0383166000908152600c60205260408120610b8b906003016119f8565b11610ba85760405162461bcd60e51b815260040161046f90612fca565b6001600160a01b0383166000908152600c60205260408120610bcc906003016119f8565b6001600160a01b0385166000908152600c602090815260408083208484526005018252918290205482518181528183028101909201909252919250606091908015610c3157816020015b610c1e61227f565b815260200190600190039081610c165790505b50905060005b8151811015610e84576001600160a01b0386166000908152600c602090815260408083208684526005019091529020805482908110610c7257fe5b600091825260209182902060408051600493909302909101805460026001821615610100026000190190911604601f8101859004909402830160a09081019092526080830184815292939092849290918491840182828015610d155780601f10610cea57610100808354040283529160200191610d15565b820191906000526020600020905b815481529060010190602001808311610cf857829003601f168201915b50505050508152602001600182018054600181600116156101000203166002900480601f016020809104026020016040519081016040528092919081815260200182805460018160011615610100020316600290048015610db75780601f10610d8c57610100808354040283529160200191610db7565b820191906000526020600020905b815481529060010190602001808311610d9a57829003601f168201915b5050509183525050600282810180546040805160206001841615610100026000190190931694909404601f81018390048302850183019091528084529381019390830182828015610e495780601f10610e1e57610100808354040283529160200191610e49565b820191906000526020600020905b815481529060010190602001808311610e2c57829003601f168201915b50505091835250506003919091015460ff1615156020909101528251839083908110610e7157fe5b6020908102919091010152600101610c37565b509092509050915091565b610527838383604051806020016040528060008152506112ea565b610eb56105486117ca565b610ed15760405162461bcd60e51b815260040161046f9061300d565b610eda81611a05565b50565b606080610eea600d61183c565b604051908082528060200260200182016040528015610f2357816020015b610f10612327565b815260200190600190039081610f085790505b50905060005b610f33600d61183c565b811015611033576000610f4d600d8363ffffffff6119ec16565b6001600160a01b038181166000908152600c60209081526040918290208251808401845281549094168452600180820180548551600261010094831615949094026000190190911692909204601f81018590048502830185019095528482529596509394909385830193909283018282801561100a5780601f10610fdf5761010080835404028352916020019161100a565b820191906000526020600020905b815481529060010190602001808311610fed57829003601f168201915b50505050508152505083838151811061101f57fe5b602090810291909101015250600101610f29565b50905090565b60008061104d60028463ffffffff611bae16565b509392505050565b60006105a082604051806060016040528060298152602001613228602991396002919063ffffffff611bca16565b60098054604080516020601f600260001961010060018816150201909516949094049384018190048102820181019092528281526060939092909183018282801561043d5780601f106104125761010080835404028352916020019161043d565b60006001600160a01b03821661110c5760405162461bcd60e51b815260040161046f90612cbd565b6001600160a01b03821660009081526001602052604090206105a09061183c565b6111356117ca565b600a546001600160a01b039081169116146111625760405162461bcd60e51b815260040161046f90612dca565b600a546040516000916001600160a01b0316907f8be0079c531659141344cd1fd0a4f28419497f9722a3daafe3b4186f6b6457e0908390a3600a80546001600160a01b0319169055565b600a546001600160a01b031690565b60078054604080516020601f600260001961010060018816150201909516949094049384018190048102820181019092528281526060939092909183018282801561043d5780601f106104125761010080835404028352916020019161043d565b6112246117ca565b6001600160a01b0316826001600160a01b031614156112555760405162461bcd60e51b815260040161046f90612b92565b80600560006112626117ca565b6001600160a01b03908116825260208083019390935260409182016000908120918716808252919093529120805460ff1916921515929092179091556112a66117ca565b6001600160a01b03167f17307eab39ab6107e8899845ad3d59bd9653f200f220920489ca2b5937696c31836040516112de919061298f565b60405180910390a35050565b6112fb6112f56117ca565b83611847565b6113175760405162461bcd60e51b815260040161046f90612f42565b61132384848484611be1565b50505050565b6060611334826117b7565b6113505760405162461bcd60e51b815260040161046f90612e48565b60008281526008602090815260409182902080548351601f60026000196101006001861615020190931692909204918201849004840281018401909452808452606093928301828280156113e55780601f106113ba576101008083540402835291602001916113e5565b820191906000526020600020905b8154815290600101906020018083116113c857829003601f168201915b50506009549394505050506002600019610100600184161502019091160461140e5790506103ac565b80511561144057600981604051602001611429929190612841565b6040516020818303038152906040529150506103ac565b600961144b84611c14565b60405160200161145c929190612841565b604051602081830303815290604052915050919050565b6001600160a01b03918216600090815260056020908152604080832093909416825291909152205460ff1690565b336000818152600c602052604090206002015460ff16156114d45760405162461bcd60e51b815260040161046f90612a41565b60008251116114f55760405162461bcd60e51b815260040161046f9061305d565b6000805b835181101561152c5783818151811061150e57fe5b6020026020010151606001511561152457600191505b6001016114f9565b508061154a5760405162461bcd60e51b815260040161046f90612b05565b6001600160a01b0382166000908152600c6020526040902061156e906003016119fc565b60005b8351811015611323576001600160a01b0383166000908152600c602052604081206005810191906115a4906003016119f8565b81526020019081526020016000208482815181106115be57fe5b6020908102919091018101518254600181018455600093845292829020815180519294600402909101926115f7928492909101906122a9565b50602082810151805161161092600185019201906122a9565b506040820151805161162c9160028401916020909101906122a9565b50606091909101516003909101805460ff1916911515919091179055600101611571565b336000818152600c602052604090206002015460ff16156116835760405162461bcd60e51b815260040161046f90612c15565b6001600160a01b0381166000818152600c602090815260409182902060028101805460ff19166001908117909155835180850190945284845283830187905281546001600160a01b03191690941781558551909384926116ea9291840191908801906122a9565b506113239150600d90508363ffffffff611cd816565b6117086117ca565b600a546001600160a01b039081169116146117355760405162461bcd60e51b815260040161046f90612dca565b6001600160a01b03811661175b5760405162461bcd60e51b815260040161046f90612a88565b600a546040516001600160a01b038084169216907f8be0079c531659141344cd1fd0a4f28419497f9722a3daafe3b4186f6b6457e090600090a3600a80546001600160a01b0319166001600160a01b0392909216919091179055565b60006105a060028363ffffffff611ced16565b3390565b600081815260046020526040902080546001600160a01b0319166001600160a01b038416908117909155819061180382611055565b6001600160a01b03167f8c5be1e5ebec7d5bd14f71427d1e84f3dd0314c0f7b2291e5b200ac8c7c3b92560405160405180910390a45050565b60006105a0826119f8565b6000611852826117b7565b61186e5760405162461bcd60e51b815260040161046f90612bc9565b600061187983611055565b9050806001600160a01b0316846001600160a01b031614806118b45750836001600160a01b03166118a984610448565b6001600160a01b0316145b806118c457506118c48185611473565b949350505050565b826001600160a01b03166118df82611055565b6001600160a01b0316146119055760405162461bcd60e51b815260040161046f90612dff565b6001600160a01b03821661192b5760405162461bcd60e51b815260040161046f90612b4e565b611936838383610527565b6119416000826117ce565b6001600160a01b0383166000908152600160205260409020611969908263ffffffff611cf916565b506001600160a01b0382166000908152600160205260409020611992908263ffffffff611d0516565b506119a56002828463ffffffff611d1116565b5080826001600160a01b0316846001600160a01b03167fddf252ad1be2c89b69c2b068fc378daa952ba7f163c4a11628f55a4df523b3ef60405160405180910390a4505050565b600061059d8383611d27565b5490565b80546001019055565b6000611a1082611055565b9050611a1e81600084610527565b611a296000836117ce565b6000828152600860205260409020546002600019610100600184161502019091160415611a67576000828152600860205260408120611a679161233f565b6001600160a01b0381166000908152600160205260409020611a8f908363ffffffff611cf916565b50611aa160028363ffffffff611d6c16565b5060405182906000906001600160a01b038416907fddf252ad1be2c89b69c2b068fc378daa952ba7f163c4a11628f55a4df523b3ef908390a45050565b6001600160a01b038216611b045760405162461bcd60e51b815260040161046f90612d49565b611b0d816117b7565b15611b2a5760405162461bcd60e51b815260040161046f90612ace565b611b3660008383610527565b6001600160a01b0382166000908152600160205260409020611b5e908263ffffffff611d0516565b50611b716002828463ffffffff611d1116565b5060405181906001600160a01b038416906000907fddf252ad1be2c89b69c2b068fc378daa952ba7f163c4a11628f55a4df523b3ef908290a45050565b6000808080611bbd8686611d78565b9097909650945050505050565b6000611bd7848484611dd4565b90505b9392505050565b611bec8484846118cc565b611bf884848484611e33565b6113235760405162461bcd60e51b815260040161046f906129ef565b606081611c3957506040805180820190915260018152600360fc1b60208201526103ac565b8160005b8115611c5157600101600a82049150611c3d565b6060816040519080825280601f01601f191660200182016040528015611c7e576020820181803883390190505b50859350905060001982015b8315611ccf57600a840660300160f81b82828060019003935081518110611cad57fe5b60200101906001600160f81b031916908160001a905350600a84049350611c8a565b50949350505050565b600061059d836001600160a01b038416611f18565b600061059d8383611f62565b600061059d8383611f7a565b600061059d8383611f18565b6000611bd784846001600160a01b038516612040565b81546000908210611d4a5760405162461bcd60e51b815260040161046f906129ad565b826000018281548110611d5957fe5b9060005260206000200154905092915050565b600061059d83836120d7565b815460009081908310611d9d5760405162461bcd60e51b815260040161046f90612d07565b6000846000018481548110611dae57fe5b906000526020600020906002020190508060000154816001015492509250509250929050565b60008281526001840160205260408120548281611e045760405162461bcd60e51b815260040161046f919061299a565b50846000016001820381548110611e1757fe5b9060005260206000209060020201600101549150509392505050565b6000611e47846001600160a01b03166121ab565b611e53575060016118c4565b6060611ee1630a85bd0160e11b611e686117ca565b888787604051602401611e7e94939291906128d6565b604051602081830303815290604052906001600160e01b0319166020820180516001600160e01b0383818316178352505050506040518060600160405280603281526020016131f6603291396001600160a01b038816919063ffffffff6121b116565b9050600081806020019051611ef9919081019061278c565b6001600160e01b031916630a85bd0160e11b1492505050949350505050565b6000611f248383611f62565b611f5a575081546001818101845560008481526020808220909301849055845484825282860190935260409020919091556105a0565b5060006105a0565b60009081526001919091016020526040902054151590565b600081815260018301602052604081205480156120365783546000198083019190810190600090879083908110611fad57fe5b9060005260206000200154905080876000018481548110611fca57fe5b600091825260208083209091019290925582815260018981019092526040902090840190558654879080611ffa57fe5b600190038181906000526020600020016000905590558660010160008781526020019081526020016000206000905560019450505050506105a0565b60009150506105a0565b6000828152600184016020526040812054806120a5575050604080518082018252838152602080820184815286546001818101895560008981528481209551600290930290950191825591519082015586548684528188019092529290912055611bda565b828560000160018303815481106120b857fe5b9060005260206000209060020201600101819055506000915050611bda565b60008181526001830160205260408120548015612036578354600019808301919081019060009087908390811061210a57fe5b906000526020600020906002020190508087600001848154811061212a57fe5b60009182526020808320845460029093020191825560019384015491840191909155835482528983019052604090209084019055865487908061216957fe5b60008281526020808220600260001990940193840201828155600190810183905592909355888152898201909252604082209190915594506105a09350505050565b3b151590565b6060611bd7848460008560606121c6856121ab565b6121e25760405162461bcd60e51b815260040161046f90612f93565b60006060866001600160a01b031685876040516121ff9190612825565b60006040518083038185875af1925050503d806000811461223c576040519150601f19603f3d011682016040523d82523d6000602084013e612241565b606091505b509150915081156122555791506118c49050565b8051156122655780518082602001fd5b8360405162461bcd60e51b815260040161046f919061299a565b60405180608001604052806060815260200160608152602001606081526020016000151581525090565b828054600181600116156101000203166002900490600052602060002090601f016020900481019282601f106122ea57805160ff1916838001178555612317565b82800160010185558215612317579182015b828111156123175782518255916020019190600101906122fc565b5061232392915061237f565b5090565b60408051808201909152600081526060602082015290565b50805460018160011615610100020316600290046000825580601f106123655750610eda565b601f016020900490600052602060002090810190610eda91905b61044591905b808211156123235760008155600101612385565b80356001600160a01b03811681146105a057600080fd5b803580151581146105a057600080fd5b600082601f8301126123d0578081fd5b813567ffffffffffffffff8111156123e6578182fd5b6123f9601f8201601f1916602001613157565b915080825283602082850101111561241057600080fd5b8060208401602084013760009082016020015292915050565b60006020828403121561243a578081fd5b61059d8383612399565b60008060408385031215612456578081fd5b6124608484612399565b915061246f8460208501612399565b90509250929050565b60008060006060848603121561248c578081fd5b8335612497816131ca565b925060208401356124a7816131ca565b929592945050506040919091013590565b600080600080608085870312156124cd578081fd5b6124d78686612399565b93506124e68660208701612399565b925060408501359150606085013567ffffffffffffffff811115612508578182fd5b612514878288016123c0565b91505092959194509250565b60008060408385031215612532578182fd5b61253c8484612399565b915061246f84602085016123b0565b6000806040838503121561255d578182fd5b6125678484612399565b946020939093013593505050565b60006020808385031215612587578182fd5b823567ffffffffffffffff8082111561259e578384fd5b81850186601f8201126125af578485fd5b803592506125c46125bf8461317e565b613157565b83815284810190828601875b868110156126885781358501608080601f19838f030112156125f0578a8bfd5b6125f981613157565b8a83013589811115612609578c8dfd5b6126178f8d838701016123c0565b82525060408301358981111561262b578c8dfd5b6126398f8d838701016123c0565b8c8301525060608301358981111561264f578c8dfd5b61265d8f8d838701016123c0565b60408301525061266f8e8385016123b0565b60608201528652505092870192908701906001016125d0565b50909998505050505050505050565b600060208083850312156126a9578182fd5b823567ffffffffffffffff808211156126c0578384fd5b81850186601f8201126126d1578485fd5b803592506126e16125bf8461317e565b83815284810190828601875b86811015612688578135850160a080601f19838f0301121561270d578a8bfd5b61271681613157565b8a830135815260408301358b820152606083013589811115612736578c8dfd5b6127448f8d838701016123c0565b6040830152506080838101356060830152919092013590820152845292870192908701906001016126ed565b600060208284031215612781578081fd5b8135611bda816131df565b60006020828403121561279d578081fd5b8151611bda816131df565b6000602082840312156127b9578081fd5b813567ffffffffffffffff8111156127cf578182fd5b6118c4848285016123c0565b6000602082840312156127ec578081fd5b5035919050565b15159052565b6000815180845261281181602086016020860161319e565b601f01601f19169290920160200192915050565b6000825161283781846020870161319e565b9190910192915050565b60008084546001808216600081146128605760018114612877576128a6565b60ff198316865260028304607f16860193506128a6565b600283048886526020808720875b8381101561289e5781548a820152908501908201612885565b505050860193505b50505083516128b981836020880161319e565b01949350505050565b6001600160a01b0391909116815260200190565b6001600160a01b0385811682528416602082015260408101839052608060608201819052600090612909908301846127f9565b9695505050505050565b60208082528251828201819052600091906040908185019080840286018301878501865b8381101561298157888303603f19018552815180516001600160a01b031684528781015188850188905261296d888601826127f9565b968901969450505090860190600101612937565b509098975050505050505050565b901515815260200190565b60006020825261059d60208301846127f9565b60208082526022908201527f456e756d657261626c655365743a20696e646578206f7574206f6620626f756e604082015261647360f01b606082015260800190565b60208082526032908201527f4552433732313a207472616e7366657220746f206e6f6e20455243373231526560408201527131b2b4bb32b91034b6b83632b6b2b73a32b960711b606082015260800190565b60208082526027908201527f497373756572207769746820746869732061646472657373206e6f74207265676040820152661a5cdd195c995960ca1b606082015260800190565b60208082526026908201527f4f776e61626c653a206e6577206f776e657220697320746865207a65726f206160408201526564647265737360d01b606082015260800190565b6020808252601c908201527f4552433732313a20746f6b656e20616c7265616479206d696e74656400000000604082015260600190565b60208082526029908201527f4e6f20726f6f74206174747269627574652073706563696669656420696e2074604082015268686520736368656d6560b81b606082015260800190565b60208082526024908201527f4552433732313a207472616e7366657220746f20746865207a65726f206164646040820152637265737360e01b606082015260800190565b60208082526019908201527f4552433732313a20617070726f766520746f2063616c6c657200000000000000604082015260600190565b6020808252602c908201527f4552433732313a206f70657261746f7220717565727920666f72206e6f6e657860408201526b34b9ba32b73a103a37b5b2b760a11b606082015260800190565b6020808252602b908201527f49737375657220776974682074686973206164647265737320616c726561647960408201526a081c9959da5cdd195c995960aa1b606082015260800190565b60208082526038908201527f4552433732313a20617070726f76652063616c6c6572206973206e6f74206f7760408201527f6e6572206e6f7220617070726f76656420666f7220616c6c0000000000000000606082015260800190565b6020808252602a908201527f4552433732313a2062616c616e636520717565727920666f7220746865207a65604082015269726f206164647265737360b01b606082015260800190565b60208082526022908201527f456e756d657261626c654d61703a20696e646578206f7574206f6620626f756e604082015261647360f01b606082015260800190565b6020808252818101527f4552433732313a206d696e7420746f20746865207a65726f2061646472657373604082015260600190565b6020808252602c908201527f4552433732313a20617070726f76656420717565727920666f72206e6f6e657860408201526b34b9ba32b73a103a37b5b2b760a11b606082015260800190565b6020808252818101527f4f776e61626c653a2063616c6c6572206973206e6f7420746865206f776e6572604082015260600190565b60208082526029908201527f4552433732313a207472616e73666572206f6620746f6b656e2074686174206960408201526839903737ba1037bbb760b91b606082015260800190565b6020808252602f908201527f4552433732314d657461646174613a2055524920717565727920666f72206e6f60408201526e3732bc34b9ba32b73a103a37b5b2b760891b606082015260800190565b60208082526044908201527f526571756573746564206174747269627574657320646f6573206e6f74206d6160408201527f746368207468652063757272656e7420736368656d65206f662074686520697360608201526339bab2b960e11b608082015260a00190565b60208082526021908201527f4552433732313a20617070726f76616c20746f2063757272656e74206f776e656040820152603960f91b606082015260800190565b60208082526031908201527f4552433732313a207472616e736665722063616c6c6572206973206e6f74206f6040820152701ddb995c881b9bdc88185c1c1c9bdd9959607a1b606082015260800190565b6020808252601d908201527f416464726573733a2063616c6c20746f206e6f6e2d636f6e7472616374000000604082015260600190565b60208082526023908201527f497373756572206469646e277420646566696e6520616e7920736368656d65206040820152621e595d60ea1b606082015260800190565b60208082526030908201527f4552433732314275726e61626c653a2063616c6c6572206973206e6f74206f7760408201526f1b995c881b9bdc88185c1c1c9bdd995960821b606082015260800190565b6020808252601e908201527f696e70757420617272617973206d757374206265206e6f7420656d7074790000604082015260600190565b90815260200190565b600060408083018584526020828186015281865180845260609350838701915083838202880101838901875b8381101561314757605f198a84030185528151608081518186526130ef828701826127f9565b8984015192508681038a88015261310681846127f9565b9150508a83015191508581038b87015261312081836127f9565b8a84015192506131328b8801846127f3565b978901979550505091860191506001016130c9565b50909a9950505050505050505050565b60405181810167ffffffffffffffff8111828210171561317657600080fd5b604052919050565b600067ffffffffffffffff821115613194578081fd5b5060209081020190565b60005b838110156131b95781810151838201526020016131a1565b838111156113235750506000910152565b6001600160a01b0381168114610eda57600080fd5b6001600160e01b031981168114610eda57600080fdfe4552433732313a207472616e7366657220746f206e6f6e20455243373231526563656976657220696d706c656d656e7465724552433732313a206f776e657220717565727920666f72206e6f6e6578697374656e7420746f6b656ea26469706673582212209e85dcf32d2bbff288cbfaa0ce916628052dfbdaa2d6f97669759691b53f277a64736f6c63430006020033",
    "sourcePath": "c:/Dev/O10/Integrations/Rsk/Contracts/O10Idp/contracts/O10Identity.sol",
    "compiler": {
        "name": "solc",
        "version": "0.6.2+commit.bacdbe57"
    },
    "functionHashes": {
        "approve(address,uint256)": "095ea7b3",
        "balanceOf(address)": "70a08231",
        "baseURI()": "6c0360eb",
        "burn(uint256)": "42966c68",
        "getAllIssuers()": "4c32c35c",
        "getApproved(uint256)": "081812fc",
        "getScheme(address)": "3730ab40",
        "isApprovedForAll(address,address)": "e985e9c5",
        "issueAttributes((bytes32,bytes32,string,int256,uint256)[])": "35009059",
        "name()": "06fdde03",
        "owner()": "8da5cb5b",
        "ownerOf(uint256)": "6352211e",
        "register(string)": "f2c298be",
        "renounceOwnership()": "715018a6",
        "safeTransferFrom(address,address,uint256)": "42842e0e",
        "safeTransferFrom(address,address,uint256,bytes)": "b88d4fde",
        "setApprovalForAll(address,bool)": "a22cb465",
        "setScheme((string,string,string,bool)[])": "e9c88cf7",
        "supportsInterface(bytes4)": "01ffc9a7",
        "symbol()": "95d89b41",
        "tokenByIndex(uint256)": "4f6ccce7",
        "tokenOfOwnerByIndex(address,uint256)": "2f745c59",
        "tokenURI(uint256)": "c87b56dd",
        "totalSupply()": "18160ddd",
        "transferFrom(address,address,uint256)": "23b872dd",
        "transferOwnership(address)": "f2fde38b"
    },
    "gasEstimates": {
        "creation": {
            "codeDepositCost": "2586800",
            "executionCost": "infinite",
            "totalCost": "infinite"
        },
        "external": {
            "approve(address,uint256)": "infinite",
            "balanceOf(address)": "infinite",
            "baseURI()": "infinite",
            "burn(uint256)": "infinite",
            "getAllIssuers()": "infinite",
            "getApproved(uint256)": "infinite",
            "getScheme(address)": "infinite",
            "isApprovedForAll(address,address)": "infinite",
            "issueAttributes((bytes32,bytes32,string,int256,uint256)[])": "infinite",
            "name()": "infinite",
            "owner()": "1181",
            "ownerOf(uint256)": "infinite",
            "register(string)": "infinite",
            "renounceOwnership()": "24290",
            "safeTransferFrom(address,address,uint256)": "infinite",
            "safeTransferFrom(address,address,uint256,bytes)": "infinite",
            "setApprovalForAll(address,bool)": "infinite",
            "setScheme((string,string,string,bool)[])": "infinite",
            "supportsInterface(bytes4)": "1318",
            "symbol()": "infinite",
            "tokenByIndex(uint256)": "infinite",
            "tokenOfOwnerByIndex(address,uint256)": "infinite",
            "tokenURI(uint256)": "infinite",
            "totalSupply()": "1215",
            "transferFrom(address,address,uint256)": "infinite",
            "transferOwnership(address)": "infinite"
        }
    }
}